:020000022000DC
:1070000000000420757302005D7302005F730200CC
:1070100061730200637302006573020000000000E8
:107020000000000000000000000000006773020084
:1070300069730200000000006B7302006D730200B0
:1070400085F002006F73020025FE02006F730200DC
:107050006F7302006F7302001DFD02006F73020068
:10706000190503003105030049050300511203000F
:107070006F7302006F7302006F7302006F73020080
:107080006F730200059E02006F7302006F730200AF
:107090006F7302006F730200A57203006F7302002A
:1070A0006F7302006F7302006F7302006F73020050
:1070B0006F7302006F730200000000000000000008
:1070C0006F7302006F7302006F7302006F73020030
:1070D0006F7302006F7302006F7302006F73020020
:1070E000ADD502006F7302006F7302000000000054
:1070F000000000006F730200000000006F730200C8
:10710000000000000000000000000000000000007F
:10711000000000000000000000000000000000006F
:10712000000000000000000000000000000000005F
:10713000000000000000000000000000000000004F
:10714000000000000000000000000000000000003F
:10715000000000000000000000000000000000002F
:10716000000000000000000000000000000000001F
:10717000000000000000000000000000000000000F
:1071800000000000000000000000000000000000FF
:1071900000000000000000000000000000000000EF
:1071A00000000000000000000000000000000000DF
:1071B00000000000000000000000000000000000CF
:1071C00000000000000000000000000000000000BF
:1071D00000000000000000000000000000000000AF
:1071E000000000000000000000000000000000009F
:1071F000000000000000000000000000000000008F
:10720000354936480A1A02D0072291438D4634493F
:1072100034480A1A06D00722914381F309880222D2
:1072200082F3148830483149314A00F044F831483B
:107230003149324A00F03FF831483249324A00F0D1
:107240003AF832483249334A00F035F83248334987
:10725000334A00F030F833483349344A00F02BF811
:1072600033483449344A00F026F83448344900227F
:1072700000F02CF833483449002200F027F8334856
:107280003349091A082902DB002202604160314AB1
:1072900090471F481F49884205D00268043003B454
:1072A000904703BCF7E700208646EC46002000210B
:1072B000294A9047FEE7884207D0521A05D0037842
:1072C00001300B700131013AF9D17047884202D088
:1072D00002700130FAE770470000042000E003204C
:1072E000000004200000042010DF0300B4970020F9
:1072F000B89E0020D0730200D073020078AA030069
:1073000010DF0300B4970020B497002044AD0300C1
:1073100044AD030044AD030044AD030044AD03009D
:1073200044AD030044AD030044AD03000FDF030090
:1073300014E60300B89E0020B89E0020B89E0020EE
:10734000F8400120F8400120F8400120F8400120D9
:10735000F86001209D730200CD350300FEE7FEE7D3
:10736000FEE7FEE7FEE7FEE7FEE7FEE7FEE7FEE7F5
:1073700000F002B8FFF7FCBF0F484FF00701884349
:1073800085460E4880470E48016841F4700101604F
:10739000BFF34F8FBFF36F8FFFF732BF09480A4922
:1073A0000A4A884207D0521A05D0037801300B7080
:1073B0000131013AF9D170470000042005E30200D1
:1073C00088ED00E030AD0300A0970020B4970020C6
:1073D00000B585B00190019B002B0AD0074B43F00C
:1073E00001030393019B9B010293039B029898471F
:1073F00000E000BF05B05DF804FB00BF50AD030026
:1074000000B583B00190019B002B0AD04FF47A7035
:10741000FFF7DEFF019B013B0193019B002BF5D1A0
:1074200000E000BF03B05DF804FB08B50CF0FAFB08
:1074300000BF08BD00B589B0039002910192019B85
:10744000002B33D00023079303230693029A079B54
:107450001344019A194600200CF05CFB0590079A32
:10746000059B13440793019A059BD31A0193059B2F
:10747000002B13D10F4B1B7883F00103DBB2002BE1
:1074800013D10120FFF7BCFF069B013B0693069B2F
:10749000002B03D1074B00221A7007E0054B012295
:1074A0001A70019B002BD1D100E000BF00BF09B0D2
:1074B0005DF804FBB89E002000B585B003900291F2
:1074C000054B00934023054A0299039800F012F8F7
:1074D00000BF05B05DF804FB35740200BC9E0020BF
:1074E00082B0019000BF02B0704782B0019000BF2F
:1074F00002B0704700B5A1B00590049103920293C9
:10750000049803F00BFC039B1593029B1693002336
:10751000179300238DF8603000231993229B1A9350
:1075200000231F930FA91F9B0822049803F0D0FC8F
:1075300008231F93119B1293BDF84030ADF84C30D7
:10754000BDF84230ADF84E3000238DF851309DF833
:107550003C3003F00303DBB2012B26D10F9BC3F3B6
:1075600095231C939DF83C30C3F3C203DBB28DF826
:107570005030BDF83C30C3F38313DBB21B931B9B2D
:107580009A0009A91F9B049803F0A2FC1B9B9B0077
:107590001F9A13441F9312AA09A915AB009313460F
:1075A0001B9A1C9800F0FCFE2FE09DF83C3003F085
:1075B0000303DBB2022B28D1BDF83E30C3F389139D
:1075C0009BB21E939DF83C30C3F3C203DBB28DF82F
:1075D00050301E9B082B28BF08231D9307A91F9B13
:1075E0001D9A049803F074FC1F9A1D9B13441F936B
:1075F0001E9A1D9BD31A1E9315AB12AA07A81D999C
:1076000000F070FF1E9B002BE3D1049803F095FB64
:1076100000BF21B05DF804FB82B00190019BDB68E4
:1076200001225A7100BF02B07047000000B583B05C
:107630004FF0FF330193FFF7F8FE0421084800F0F4
:10764000CBFD0190019B002B03DA064941200AF093
:107650008DFD0348FFF7E0FF00BF03B05DF804FBBA
:1076600020AD030068AD030000B583B00190009128
:10767000019B1B681B6800990198984700BF03B0E5
:107680005DF804FB00B583B00190019B1B685B684B
:107690000198984700BF03B05DF804FB00B583B0C4
:1076A0000190019B1B689B680198984700BF03B03D
:1076B0005DF804FB82B001900B468DF80330019B0E
:1076C000DB689DF803201A7100BF02B0704782B0DA
:1076D0000190019BDB681B79184602B0704782B0AD
:1076E0000190019BDB6801225A7100BF02B0704714
:1076F00082B00190019BDB685B79184602B070474D
:1077000000B585B0019000910C4B00221A700C4816
:1077100003F068FA0390039B002B01D0039B08E061
:10772000084803F0A9FE084A084BD31ADB08029365
:107730000023184605B05DF804FB00BF64A00020DC
:1077400054AB0300E0AD030054AB03008CAA03006C
:10775000024A034BD31ADB081846704754AB0300A8
:107760008CAA030000B587B001900B468DF803305A
:107770009DF80330002B1FD0FFF7EAFF0490002391
:10778000059313E0059B9B000E4A13440393039B50
:107790001B881A46019B1B689A4204D1019B059ADB
:1077A0001A60002309E0059B01330593059A049BA9
:1077B0009A42E7D3052300E00023184607B05DF89E
:1077C00004FB00BFA097002000B585B001900B46D8
:1077D0008DF803309DF8032001AB11461846FFF7E2
:1077E000C1FF0346002B07D1019BDB00054A134470
:1077F0000393039B1B6800E00023184605B05DF867
:1078000004FB00BF8CAA030084B001900B468DF8E6
:107810000330019BDB00174A134402939DF80330A9
:10782000013B032B1CD801A252F823F03D78020043
:10783000457802004D7802005778020002238DF847
:107840000F3011E004238DF80F300DE0029B1B79FF
:107850008DF80F3008E0029B5B798DF80F3003E064
:1078600000238DF80F3000BF9DF80F30184604B08C
:10787000704700BF8CAA030084B0019000910023E0
:107880008DF80F30019B1B7803F00403DBB2002B53
:1078900024D0019B1B78C3F30103DBB2012B02D080
:1078A000022B0CD017E0009B1B68019A1288C2F3D0
:1078B0008312D2B213449A1C009B1A600BE0009B07
:1078C0001B68019A5288C2F3891292B213449A1C1F
:1078D000009B1A6000BF01238DF80F309DF80F3018
:1078E000184604B07047000000B58BB00023ADF817
:1078F00026303E4802F081FC3D4802F07EFC3D4BC4
:107900009B6804933C4B1B680693049A069B1340A8
:1079100002339B00374A13440433089304AB1946DF
:107920000898FFF7A9FF0346002B09D0049A069B8D
:10793000134002339B002F4A134404330893EDE7AE
:1079400000BF0023079311E0049B5A1C0492069A7F
:107950001340079A920001A90A44264902339B006A
:107960000B445B681360079B01330793079B012B54
:10797000EAD99DF80430C3F30103DBB2012B10D028
:10798000022B1CD1BDF80A30ADF82630BDF8063008
:10799000C3F389139BB203339A08049B13440493E3
:1079A00013E0BDF80A30ADF82630BDF80430C3F35B
:1079B0008313DBB21A46049B1344049305E00F497A
:1079C0004FF4C2700AF0D2FB00BF094802F021FC5C
:1079D0000590059B002B02D0049B064A9360BDF8DE
:1079E000263018460BB05DF804FB00BF7CA40020D5
:1079F00078A4002064A00020BC970020F0AD030014
:107A000000B585B00021074802F044FB0390039BBA
:107A10000293029B83F310030193019B184605B068
:107A20005DF804FB80A4002000B589B003900291AA
:107A300001920093039B1B0C0793FFF7E1FF069055
:107A4000FFF786FE0246079B934204D3214940F28A
:107A5000A9100AF08BFB069B1904009B5A1C0A9B79
:107A60001340079A0A431C4902339B000B445A6097
:107A7000009A0A9B134002339B00174A13440433B5
:107A80000593039B03F00703D9B2059A137861F3BA
:107A9000C5031370019B03F00F03D9B2059A138835
:107AA00061F389131380029BC3F31501059A1368D0
:107AB00061F39F231360059A1378012161F3010399
:107AC0001370059A13786FF38203137000BF09B027
:107AD0005DF804FBF0AD030064A0002000B58DB09C
:107AE0000390029113468DF80730039B02330A93EB
:107AF00001238DF8273000238DF81B300DF11B0377
:107B0000184601F053FD404B5A68029B1A603F4BE8
:107B10001A683D4B99683C4B5B68CB1A13440133A0
:107B20000B9314E001213A4802F02BFBFFF7DCFE37
:107B300007900799364802F024FB344B1A68324B01
:107B40009968314B5B68CB1A134401330B930A9A43
:107B50000B9B9A42E6D89DF82730002B48D0002393
:107B600005939DF80730002B17D09DF814300122A3
:107B700062F301038DF814309DF8143043F00403D0
:107B80008DF81430039B03F00F03DAB2BDF8143004
:107B900062F38913ADF8143016E09DF81430022218
:107BA00062F301038DF814309DF8143043F00403A0
:107BB0008DF81430039BC3F309039AB2BDF8163055
:107BC00062F38F13ADF816300F4B5A680F4B1B68DA
:107BD000134002339B000C4A134404330893059A64
:107BE000089B1A60084B5A680A9B1344064A536064
:107BF0009DF81B30184601F0EFFC9DF82730184621
:107C00000DB05DF804FB00BF64A00020BC9700200D
:107C100080A4002000B58BB00590049103920293DC
:107C20001F4B1B68079306AB012219460298FFF70A
:107C300055FF0346002B24D0069B023309930023F3
:107C4000089311E0089B9B00039A1A44099B591C56
:107C5000099107990B401268124902339B000B44AB
:107C60005A60089B01330893089A029B9A42E9D311
:107C7000069A079B00931346029A04990598FFF70A
:107C8000D3FE084B1B78002B05D000BF00F09AF8FC
:107C90000346002BFAD100BF0BB05DF804FB00BF18
:107CA000BC97002064A0002000B583B00190009133
:107CB0000023002200990198FFF7ACFF00BF03B03A
:107CC0005DF804FB00B587B0039002910192019B1F
:107CD000059305AA012302990398FFF79BFF00BFB4
:107CE00007B05DF804FB00B587B0039002910192E4
:107CF0000093019B0493009B059304AA022302991D
:107D00000398FFF787FF00BF07B05DF804FB00B5DD
:107D100089B00390029101920093019B0593009B0F
:107D200006930A9B079305AA032302990398FFF77A
:107D300071FF00BF09B05DF804FB00B58BB0039084
:107D4000029101920093019B0593009B06930C9B6B
:107D500007930D9B08930E9B099305AA052302998F
:107D60000398FFF757FF00BF0BB05DF804FB00B5A9
:107D70008BB00390029101920093019B0493009BAE
:107D800005930C9B06930D9B07930E9B08930F9BEB
:107D9000099304AA062302990398FFF73BFF00BF4B
:107DA0000BB05DF804FB0000054B9A68044B5B6860
:107DB0009A420CBF01230023DBB21846704700BF74
:107DC00064A0002000B599B0FFF7EEFF0346002B3A
:107DD00001D00023C0E19B4B0022C3F81824BFF35D
:107DE0004F8F00BF974B9B680493974B1B68109372
:107DF000049A109B134002339B00924A13440433AD
:107E00001193002317930023169300230F9304ABC1
:107E100019461198FFF730FD0346002B19D0894B06
:107E2000D3F81834002B14D1864B5A68049B9A421D
:107E300005D8844B5B68834A936000238CE1049AE5
:107E4000109B134002339B007E4A1344043311936A
:107E5000DDE70023159311E0049B5A1C0492109A4D
:107E60001340159A920001A90A44764902339B00F7
:107E70000B445B681360159B01331593159B012B15
:107E8000EAD99DF8043003F00303DBB2022B40F083
:107E90009C80BDF80630C3F389139BB20D93BDF8E7
:107EA0000630C3F389139BB2502B28BF50239BB2DB
:107EB0000C930C9BC3F309039AB2BDF8063062F32E
:107EC0008F13ADF806300C9B08330B939DF80430EC
:107ED000C3F3C203DBB20F930B995C4802F08DFE33
:107EE0001790179B002B00F0D380179802F016FF15
:107EF00001A9169B0822179802F0CCFF169B0833A5
:107F00001693049BDA43109B134001339B000A93A2
:107F10000C9A0A9B9A4242D90A9B002B08D0049AD9
:107F2000109B134002339B00464A1344043300E085
:107F3000474B08930A9B002B02D00A9BDBB201E05F
:107F40000C9BDBB28DF81F300A9B002B01D0404BFD
:107F500000E0002306930A9B002B06D00C9BDAB2AC
:107F60000A9BDBB2D31ADBB200E000238DF8173096
:107F70009DF81F20169B0899179802F08BFF9DF81B
:107F80001F30169A13441693069B002B16D09DF8AB
:107F90001720169B0699179802F07CFF0EE0049AB2
:107FA000109B134002339B00264A13440433099369
:107FB000169B0C9A0999179802F06CFF0D9B0333DE
:107FC0009A08049B1344049362E09DF8043003F084
:107FD0000303DBB2012B5BD1BDF80430C3F3831381
:107FE000DBB2062B28BF0623DAB2BDF8043062F3F9
:107FF0008913ADF80430BDF80430C3F38313DBB24A
:1080000002330E939DF80430C3F3C203DBB20F9327
:108010000E9B9B0019460D4802F0EFFD1790179B31
:10802000002B35D0179802F079FE01A9169B082283
:10803000179802F02FFF169B083316930023159311
:108040001DE000BF64A00020BC97002054AB0300DB
:1080500070A00020049B5A1C0492109A1340023313
:108060009B003F4A1344191D169B0422179802F0E7
:1080700011FF169B04331693159B01331593BDF81E
:108080000430C3F38313DBB21A46159B9342E1D34A
:10809000179B002B40D0324BD3F810341493304B45
:1080A000D3F81834002B1BD0179802F046FE4DE091
:1080B00000238DF84F301498FFF71AFB0346002B6E
:1080C00002D001238DF84F309DF84F30002B03D0A4
:1080D00017991498FFF7C8FA149BDB681B68149370
:1080E000149B002BE4D1179802F027FE00238DF893
:1080F00003300DF10303184601F058FA184BD3F87A
:108100001834002B02D1049B154A93609DF803306C
:10811000184601F061FA19E0114BD3F810341293AC
:1081200006E01298FFF7BAFA129BDB681B681293FD
:10813000129B002BF5D10B4A0B4BD31ADB081B0407
:1081400043F0020309491846FFF7AEFDFFF72CFE86
:10815000034683F00103DBB2184619B05DF804FB57
:1081600064A00020CCAA03008CAA030060AE030028
:1081700000B585B00023039323E0164BD3F81034E9
:10818000029301238DF807300FE00298FFF79FFA62
:1081900003461A46039B934203D100238DF8073010
:1081A00006E0029BDB681B680293029B002BECD16C
:1081B0009DF80730002B01D0039B07E0039B0133A0
:1081C0000393039B092BD8DD4FF0FF33184605B00E
:1081D0005DF804FB64A0002000B585B001900B465B
:1081E0008DF80330FFF7C4FF0390039BB3F1FF3F0B
:1081F00001D1039B22E0039BDBB219460198FFF7F4
:1082000059FA104BD3F81034002B08D10D4A019BBA
:10821000C2F81034019BDB6800221A600DE0094BA4
:10822000D3F81034DA68019BDB6812681A60054BDA
:10823000D3F81034DB68019A1A60039B184605B026
:108240005DF804FB64A0002000B583B00C4BD3F8AC
:10825000103401930A4B01221A7009E00198FFF7CC
:108260003EFA0198FFF70EFA019BDB681B68019349
:10827000019B002BF2D100BF00BF03B05DF804FBEF
:1082800064A0002082B00190009100BF02B070474E
:1082900010B584B003900291039BDB88002B0AD0B9
:1082A000039BDB881A461F4B009313461E4A1F4947
:1082B000029802F0EBF8039B1B7A052B2ED0039B50
:1082C0005B7A002B12D0039B9B881A46039B1B7A78
:1082D00019461046FFF798FA03461A46144B53F80E
:1082E00022301A461349029802F0D0F8039B1B680B
:1082F00019460298FFF7C6FF039B1B7A1A460E4BDE
:1083000053F82240039B9B8800211846FFF75CFA34
:10831000034622460949029802F0B8F800BF04B0AB
:1083200010BD00BF94AE0300A4AE0300DCAE03009A
:10833000D4970020F4AE0300C0970020F8AE0300ED
:1083400000B585B00390029113468DF80730039B6A
:108350001B7A052B0FD0039B5B7A002B06D00D4BAD
:108360001B681A460C49029802F090F80B490298D3
:1083700002F08CF807E09DF80730002B03D0074986
:10838000029802F083F8029802F05EF800BF05B090
:108390005DF804FBD4970020F4AE030004AF0300A3
:1083A00030B58BB007900691059204930E9B1B7B12
:1083B0008DF827300E9B00221A730E990498FFF750
:1083C00067FF059B062B7FD801A252F823F000BF60
:1083D000ED830200F7830200078402001B84020081
:1083E00039840200618402009184020007990E988A
:1083F00002F04CF869E0069B1B681A4607990E9834
:1084000002F044F861E0069B1A68069B04331B687F
:1084100007990E9802F03AF857E0069B1A68069BF7
:1084200004331968069B08331B6800930B460799B1
:108430000E9802F02BF848E0069B1968069B04335F
:108440001868069B08331B68069A0C321268019262
:10845000009303460A4607990E9802F017F834E095
:10846000069B1868069B04331C68069B08331B6830
:10847000069A0C321268069910310968029101922D
:1084800000932346024607990E9801F0FFFF1CE077
:10849000069B1C68069B04331D68069B08331B68FB
:1084A000069A0C3212680699103109680698143041
:1084B000006803900291019200932B46224607998F
:1084C0000E9801F0E3FF00E000BF00220E9904982F
:1084D000FFF736FF0E9B9DF827201A7300BF0BB0E5
:1084E00030BD00BF00B587B00390029101920093A8
:1084F000029B082B60D8009B1B7B8DF81330009BE0
:1085000000221A7300990198FFF7C2FE0023059319
:1085100014E0059A029B9A4209D2039A059B1344E0
:108520001B781A462649009801F0B0FF03E0254960
:10853000009801F0ABFF059B01330593059B072BCA
:10854000E7D92149009801F0A1FF0023059326E017
:10855000059A029B9A421BD2039A059B13441B78EF
:108560008DF812309DF812307E2B0AD89DF812300B
:10857000184611F07DFE0346002B02D09DF8123004
:1085800000E02E231A461149009801F07FFF03E016
:108590000F49009801F07AFF059B01330593059B75
:1085A000072BD5D9012200990198FFF7C9FE009B3E
:1085B0009DF813201A7300E000BF07B05DF804FBBC
:1085C00008AF030010AF030014AF030018AF03009F
:1085D0001CAF030084B003468DF807309DF80730C8
:1085E0005B08DBB21A460D4B9B5C8DF80F309DF893
:1085F000073003F00103002B04D09DF80F301B0956
:10860000DBB204E09DF80F3003F00F03DBB28DF80E
:108610000E309DF80E30184604B07047B8A4002004
:1086200084B003460A468DF8073013468DF80630AD
:108630009DF8073003F00103002B01D00F2300E069
:10864000F0238DF80F309DF8073003F00103002B65
:1086500004D09DF806301B01DBB201E09DF8063026
:108660008DF80E309DF807305B08DBB21A46114BCF
:108670009A5C9DF807305B08DBB219469DF80F3015
:108680001340DAB20B4B5A549DF807305B08DBB24B
:108690001A46084B9A5C9DF807305B08DBB2194616
:1086A0009DF80E301343DAB2024B5A5400BF04B0A7
:1086B000704700BFB8A4002000B585B003468DF810
:1086C00007300023039310E00F4B1A68039BDB0075
:1086D00013440293029B1B789DF807209A4201D114
:1086E000029B0DE0039B01330393084B1B781A4652
:1086F000039B9342E8DB0649882009F037FD0023FD
:10870000184605B05DF804FB84A4002088A400206E
:108710002CAF030000B585B003460A468DF807303C
:1087200013468DF806309DF807301846FFF7C4FF52
:108730000390039B002B0BD0039B5B68002B07D09F
:10874000039B5B689DF806109DF80720104698472C
:1087500000BF05B05DF804FB2DE9F04F87B003467C
:108760000A468DF80F3013468DF80E309DF80F3005
:108770001846FFF72FFF0346042B00F2C28001A228
:1087800052F823F0998702000D8802002988020020
:10879000598802006F8802009DF80E30002B00F00F
:1087A000AD809DF80F3001211846FFF739FF0023F7
:1087B0008DF817300DF11703184600F0F7FE9DF8FD
:1087C0000F104FF001024FF00003A1F12004C1F19E
:1087D000200003FA01F702FA04F4274322FA00F01A
:1087E000074302FA01F6494BD3E9002346EA0201A6
:1087F00000913B430193454BDDE90012C3E90012B0
:108800009DF81730184600F0E7FE77E09DF80E302F
:10881000002B01D0022200E000229DF80F3011460B
:108820001846FFF7FDFE6CE09DF80E30002B0CD0D3
:108830009DF80F3003211846FFF7F2FE9DF80F3028
:1088400001211846FFF766FF5BE09DF80F3001211C
:108850001846FFF7E5FE54E09DF80E30002B4FD18F
:108860009DF80F3004211846FFF7DAFE48E09DF826
:108870000E30002B06D09DF80F3003211846FFF76D
:10888000CFFE3EE09DF80F3000211846FFF7C8FEEE
:108890009DF80F3000211846FFF73CFF00238DF8AC
:1088A00016300DF11603184600F080FE9DF80F10EB
:1088B0004FF001024FF00003A1F12006C1F12000AA
:1088C00003FA01F502FA06F6354322FA00F00543F1
:1088D00002FA01F46FEA04086FEA05090B4BD3E9C9
:1088E000002308EA020A09EA030B084BC3E900ABBC
:1088F0009DF81630184600F06FFE02E000BF00E061
:1089000000BF00BF07B0BDE8F08F00BFB0A40020DB
:1089100000B583B00648074B1B685B080022194668
:1089200000F066FD019000BF03B05DF804FB00BFDE
:1089300090A400208CA4002000B587B001900023F3
:10894000059328E01C4B1A68059BDB001344049335
:10895000049B1B78184607F031F903468DF80F3059
:10896000049B5B78012B0CBF01230023DBB21A466A
:108970009DF80F309A420CBF012300238DF80E3072
:10898000049B1B789DF80E2011461846FFF7E4FE65
:10899000059B01330593094B1B781A46059B9342AF
:1089A000D0DB074BD3E90023134301D0FFF7B0FF1F
:1089B00000BF07B05DF804FB84A4002088A4002059
:1089C000B0A4002000B585B001900B468DF80330AF
:1089D000019BDBB21846FFF76FFE0390039B1B78E9
:1089E000184607F0EBF803468DF80B30039B5B78D5
:1089F000012B0CBF01230023DBB21A469DF80B307C
:108A00009A420CBF012300238DF80A309DF80A30EA
:108A1000002B06D0054BD3E90023134301D1FFF708
:108A200077FF00BF05B05DF804FB00BFB0A40020D5
:108A300000B58BB003900B4601928DF80B30019B73
:108A4000092B01D8072367E006F0ACFF034683F04B
:108A50000103DBB2002B09D006F040FF0990099B0F
:108A60000893089B002B01D0089B55E02C4A039BE0
:108A700013602C4A9DF80B3013702B4A019B136036
:108A800020220021294811F077FC29494FF00002EB
:108A90004FF00003C1E9002331E09DF80B30DB000B
:108AA000039A1344079303238DF8143000238DF8A1
:108AB00015309DF816306FF300038DF816309DF8D1
:108AC00016306FF341038DF816309DF816306FF3B2
:108AD00082038DF81630079B9B788DF81530079B25
:108AE0001B78184605AB134A194606F067FF099034
:108AF000099B0693069B002B01D0069B0CE09DF87A
:108B00000B305A1E8DF80B20002BC6D10A4A0021CB
:108B10000A4800F039FC034618460BB05DF804FB28
:108B200084A4002088A400208CA40020B8A40020E5
:108B3000B0A40020C58902003989020094AF030067
:108B400000B583B0114B1B68002B04D1104940F2D3
:108B5000351009F00BFB002301930CE00B4B1A6856
:108B6000019BDB0013441B780121184606F0A2FF8D
:108B7000019B01330193074B1B781A46019B9342DB
:108B8000ECD30023184603B05DF804FB84A4002056
:108B90002CAF030088A4002086B0039002910192BC
:108BA00001238DF817309DF81730204A039B13607E
:108BB0001E4A029B53601D4A019B9360039B44F233
:108BC0000102934212D0039B44F20202934220D14D
:108BD000019B164AD360154BDB681B68134A9361EF
:108BE000124BDB685B68114AD36112E0019B0F4AAC
:108BF00013610E4B1B699B680C4A53610B4B1B693D
:108C00001B680A4A9361094B1B695B68074AD36179
:108C100000BF72B600BF00BF9DF81730DBB2002B5B
:108C2000FAD162B600BF00BF06B07047D8A40020DA
:108C300000B583B002900091019244F201007146A8
:108C40006A4600F003F803B000BD00BF30B58BB03A
:108C500007900691059272B600BFFFF7F5FA00BFC4
:108C6000FFF7B0F80346002BFAD1079B44F202024B
:108C700093422FD0079B44F20202934269D8079B8C
:108C800044F20102934237D0079B44F2010293421F
:108C90005FD8079B012B05D0079B41F2010293424D
:108CA0000CD056E0394A3A4BD31ADB081B0443F088
:108CB000010338491846FEF7F7FF57E0334A344BB3
:108CC000D31ADB081B0443F0010333491846FEF7AF
:108CD000EBFF4BE0059B09932C4A2D4BD31ADB0885
:108CE0001B0443F00100099B5B681A46099B1B6843
:108CF0002A49FEF7F8FF39E0059B0893234A244BE5
:108D0000D31ADB081B0443F00104089B9D68089BF1
:108D10009B68184602F0D0FC03461846089B5B6827
:108D20001946089B1B68069A02920193009103461C
:108D30002A461B492046FFF700F8144A144BD31A61
:108D4000DB081B0443F0010316491846FEF7ACFF8D
:108D50000CE00E4A0E4BD31ADB081B0443F0010350
:108D6000069A11491846FEF7ADFF00BF0F4B1B686E
:108D700003F00103002B00D000BE059A0699079866
:108D8000FFF70AFF00BF0BB030BD00BFCCAA030045
:108D90008CAA030098AF0300B8AF0300DCAF030058
:108DA000F8AF030020B0030034B00300F0ED00E0A2
:108DB0002DE9F04383B0144801F009F8034600227E
:108DC0001C461546114BD3E9002314EB020845EB72
:108DD0000309CDE900890E4BD3E90023DDE9000149
:108DE000904271EB030307D2DDE9002312F1807694
:108DF00043F10007CDE90067DDE90023104619467D
:108E000003B0BDE8F08300BFF897002000A5002064
:108E100008A5002088B001900091019B0793009B5A
:108E20000693079BD3E90223CDE90423069BD3E9EC
:108E30000223CDE90223DDE90423DDE902019042AA
:108E400071EB03032CBF01230023DBB2184608B0EB
:108E500070470000F0B585B00190019B5B69002B65
:108E600003D12B49A22009F081F900238DF80F309E
:108E7000284B1B78002B45D0019B002B42D0019B37
:108E80001B7FDBB2002B3DD0FFF792FF019BD3E9A4
:108E90000223904271EB03032CD3019B1B69002B2F
:108EA00002D1019B00221A77019B5B69019A9269AA
:108EB00010469847019B1B69002B23D0019B1B7F09
:108EC000DBB2002B1ED0019BD3E902230199096973
:108ED00000200C460546161943EB0507019BC3E924
:108EE0000267019B19460C4802F040FB01238DF8F4
:108EF0000F3007E0019B1946074802F037FB0123BA
:108F00008DF80F309DF80F30184605B0F0BD00BF4A
:108F100058B00300FCA40020C4B00300F0B589B031
:108F2000019000910D230793009B00221A70019B72
:108F3000D3E90245FFF73CFF02460B46A61A65EB54
:108F40000307CDE90467DDE90423012A73F1000377
:108F50001BDB049BB3F5350F05D300F0A9FA0246DD
:108F6000154B134403E0019BD3E9022313460393FB
:108F70004FF49603039A0021104800F01BFE07905F
:108F8000079B002B05D1012313E000210B4800F0C3
:108F9000E9FE079B0D2B07D10198FFF75BFF034606
:108FA0001A46009B1A7003E00549F52009F0DEF827
:108FB0000023184609B0F0BDFFFFB400F897002069
:108FC00058B0030000B583B0044802F009FB0190DB
:108FD000019B184603B05DF804FB00BFC4B003005A
:108FE00000B583B0044802F01DFB0190019B1846B8
:108FF00003B05DF804FB00BFC4B0030000B583B04C
:10900000FFF7E0FF0190019B002B02D0019B0022A3
:109010001A77019B002BF3D100BF00BF03B05DF8AE
:1090200004FB0000054BD3E9002312F1807043F1EB
:109030000001024BC3E9000100BF704700A50020FA
:1090400010B582B00190124B1B68002B1DD0019807
:1090500000F0BDFE04460021019800F0A9FE034681
:109060001946204600F018FA0346B3F5960F04D3CC
:1090700008494FF4957009F079F8054B1B681846BC
:10908000FFF7E8FE024B00221A6000BF02B010BDDD
:10909000F8A4002058B0030000B583B00190FFF79A
:1090A00087FE02460B460349C1E9002300BF03B017
:1090B0005DF804FB08A5002000B585B00190FFF71E
:1090C0008FFF039000238DF80B30039B002B48D0BB
:1090D0002B4B1B68002B03D101238DF80B3019E0BB
:1090E000039BD3E90201264B1B68D3E9022390427C
:1090F00071EB03030ED201238DF80B30204B1B685C
:109100001B7FDBB2002B05D01D4B1B6819461D4889
:1091100002F02CFA9DF80B30002B2AD0FFF752FFFB
:1091200003900DF10A0319460398FFF7F7FE034673
:10913000002B12D0124B1B68002B02D1019800F0BB
:1091400045FC0F4A039B13609DF80A3083F001032E
:10915000DBB2002BB3D000BF0EE0094B00221A6037
:10916000ADE7074B1B68002B05D1019800F044FCCC
:1091700001E000BF00E000BF00BF05B05DF804FBE8
:10918000F8A40020C4B0030000B587B001902C4AB9
:1091900003AB1946104600F050FF059048E0059BD0
:1091A0001B78022B2ED0022B32DC002B02D0012B9D
:1091B00014D02DE0059B5B681B7FDBB283F00103BD
:1091C000DBB2002B26D0059B5B6801221A77059B3A
:1091D0005B6819461B4802F0C9F91BE0059B5A68F9
:1091E000194B1B689A4203D1174B00221A6012E0F8
:1091F000059B5B681946134802F028FA03468DF870
:10920000133008E0FFF7FAFE104B01221A7002E05B
:1092100000BF00E000BF0A4A03AB1946104600F049
:1092200025FF074A03AB1946104600F006FF0590DC
:10923000059B002BB3D100BF00BF07B05DF804FB56
:1092400068A50020C4B00300F8A40020FCA40020FE
:1092500000B583B00190019800F077FD0346002B24
:1092600001D0FFF7DFFE0021019800F08CFD0346DE
:10927000002B02D00198FFF7E3FE0121019800F0D6
:1092800082FD0346002B02D00198FFF705FF0198ED
:10929000FFF77AFF0198FFF70FFF00BF03B05DF8FB
:1092A00004FB000008B5024800F09EFD00BF08BDA9
:1092B000F897002000B585B0034600918DF807307F
:1092C000114A02AB1946104600F08AFE0390039B38
:1092D000002B13D0039B9DF807201A70039B009A64
:1092E0005A60094A02AB1946104600F092FE034646
:1092F000002B01D0FFF7D6FF002300E0042318461F
:1093000005B05DF804FB00BF68A5002000B583B080
:10931000164B1B680093164808235822154900F085
:1093200018FE0190019B002B01D0019B19E06B46B8
:10933000114A1946114800F0CBFA0190019B002B0D
:1093400001D0019B0DE001210C4800F0EDFC012350
:109350000B4A0121094800F065FB0A4B01221A70F3
:10936000019B184603B05DF804FB00BFC0B00300CA
:1093700068A5002010A5002051920200F897002057
:10938000FFFF7F00FCA4002000B587B003900B46D0
:1093900001928DF80B30039B002B04D1134940F24E
:1093A0002E2008F0E3FE019B002B04D10F4940F270
:1093B0002F2008F0DBFE019B002B01D1072310E0DA
:1093C000039B1B680593059B019A5A619DF80B301E
:1093D000012B0CBF01230023DBB21A46059B1A6147
:1093E0000023184607B05DF804FB00BF58B0030027
:1093F000F0B587B0039002910192039B002B04D13A
:10940000164940F23E2008F0B1FE039B0593059BF0
:109410001B7FDBB2002B01D000231CE0059B019ACF
:109420009A61FFF7C5FC02460B46029900200C46E4
:109430000546161943EB0507059BC3E90267059B23
:109440001B69002B02D0059B029A1A610599002026
:10945000FFF730FF0346184607B0F0BD58B00300D1
:1094600000B585B00190019B002B04D109494FF450
:10947000157008F07BFE019B0393039B00221A7773
:1094800003990120FFF716FF0346184605B05DF863
:1094900004FB00BF58B0030082B001900091019A14
:1094A000009BD31A23F07F43184602B07047000098
:1094B00008B5034800F08BFC0346184608BD00BF02
:1094C000F897002082B0EFF310830093009B019384
:1094D00072B600BF019B184602B0704762B600BF6B
:1094E00000BF704700B585B00190FFF7EBFF039018
:1094F000164B9B68002B1BD1144B01229A60144B16
:10950000D3F88020134B1340104A1360104B114ABC
:10951000C3F880200E4BD3F884300C4A53600C4BB8
:109520004FF0FF32C3F88420019B00221A7002E042
:10953000019B01221A70039B002B01D1FFF7CEFF84
:109540000023184605B05DF804FB00BF7CA5002091
:1095500000E100E0FC06FFBD00B585B003468DF8D4
:109560000730104B9B68002B16D09DF80730002B5E
:1095700012D1FFF7A7FF03900B4A0A4B1B68136039
:10958000094A084B5B685360064B00229A60039BB4
:10959000002B01D1FFF7A2FF0023184605B05DF8AC
:1095A00004FB00BF7CA5002000E100E000B583B013
:1095B000019000F02BF80346012B03D0054943200E
:1095C00008F0D4FD0198FFF78DFF00BF03B05DF8F0
:1095D00004FB00BFD0B0030000B583B003468DF894
:1095E000073000F013F80346012B03D00649512041
:1095F00008F0BCFD9DF807301846FFF7ADFF00BF2F
:1096000003B05DF804FB00BFD0B0030084B0EFF3FB
:1096100005830193019BC3F308030393039B002B72
:109620000DD1EFF314830093009B0293029B03F090
:109630000103002B0CBF01230023DBB200E0012358
:10964000184604B07047000082B003468DF807301A
:109650009DF90730002B0CDB9DF8073003F01F024B
:1096600005499DF907305B09012000FA02F241F833
:10967000232000BF02B0704700E100E082B0034643
:109680008DF807309DF90730002B0DDB9DF8073072
:1096900003F01F0206499DF907305B09012000FA1B
:1096A00002F2403341F8232000BF02B0704700BFF0
:1096B00000E100E082B0034600918DF807309DF98B
:1096C0000730002B0ADB009BDAB20C499DF907300A
:1096D0005201D2B20B4483F800230BE0009BDAB2B4
:1096E00007499DF8073003F00F03043B5201D2B243
:1096F0000B441A7600BF02B0704700BF00E100E0E3
:1097000000ED00E000B583B003460A468DF807304F
:1097100013468DF806309DF80630012B03D99DF8CD
:109720000630032B0BD99DF80630042B03D99DF886
:109730000630072B03D908496B2008F017FD9DF868
:1097400006209DF9073011461846FFF7B3FF00BF0A
:1097500003B05DF804FB00BF40B1030000B583B067
:1097600003468DF807309DF907301846FFF76CFF68
:1097700000BF03B05DF804FB00B585B00190019B0C
:10978000002B0AD0074B43F001030393019B9B017D
:109790000293039B0298984700E000BF05B05DF874
:1097A00004FB00BF50B2030084B003900291019209
:1097B000039B029A02F5A872019943F8221000BF98
:1097C00004B0704782B001900091019B009A02F5AD
:1097D000A87253F82230184602B0704782B0019048
:1097E0000091019B009AC3F8042300BF02B07047A8
:1097F00082B001900091019B009AC3F8082300BF3A
:1098000002B0704782B001900B46ADF80230BDF84F
:109810000230019A13441B68184602B0704784B0A6
:1098200001900B46ADF80230BDF80230019A1344A6
:1098300000221A60BDF80230019A13441B6803939A
:10984000039B00BF04B0704782B00190019BD3F826
:109850000435184602B0704700B583B001900091FE
:10986000009BB3F5805F04D306494FF4BE7008F047
:109870007DFC019B009AC3F8082500BF03B05DF88A
:1098800004FB00BF70B1030082B001900B468DF85D
:1098900003309DF80320019B13441A4601231360F3
:1098A00000BF02B0704782B001900091019B009A06
:1098B000C3F8442300BF02B0704782B0019000910A
:1098C000019B009AC3F8482300BF02B07047000014
:1098D00000B587B0039002910192039B002B03D146
:1098E0003349552008F042FC029B002B03D130493C
:1098F000562008F03BFC019B002B03D12C4957203C
:1099000008F034FC039B5B7919462A4A019B42F814
:109910002130039B5B79284ADB0013441B79002B21
:109920000ED008230593254A254BD31ADB081B04C8
:1099300043F0020323491846FEF7B6F9059B32E0CF
:10994000039B1A68029B1B8819461046FFF784FF89
:10995000039B93F90420029B9B7819461046FFF75E
:10996000D1FE039B93F904301846FFF7F7FE039BE3
:109970005B79114ADB00134401221A71039B5B7966
:1099800019460D4A039B42F83130002305930B4AD8
:109990000B4BD31ADB081B0443F003030A49184698
:1099A000FEF782F9059B184607B05DF804FB00BF7F
:1099B000A0B1030088A500208CA50020DCAA03002C
:1099C0008CAA030004B2030028B2030000B583B0E0
:1099D0000190019B002B03D10649872008F0C6FBAC
:1099E000019B1B6800211846FFF74EFF00BF03B024
:1099F0005DF804FBA0B1030000B583B00190019BAA
:109A0000002B03D106498D2008F0B0FB019B1B6899
:109A100004211846FFF738FF00BF03B05DF804FBD0
:109A2000A0B1030000B587B00390029101928DF8B8
:109A30000330039B002B03D12149962008F096FBAD
:109A40004FF48032029B02FA03F30593029B5033DA
:109A50009BB29B00ADF81230019B23F07F43019332
:109A6000039B1B6805991846FFF7C2FE039B1B6802
:109A700005991846FFF721FF039B1B68BDF81220CC
:109A800011461846FFF7CBFE039B1B68019A02990B
:109A90001846FFF789FE039B1B6805991846FFF7D8
:109AA00002FF9DF80330002B05D0039B1B6805992E
:109AB0001846FFF793FE00BF07B05DF804FB00BF38
:109AC000A0B1030000B585B00390029113468DF854
:109AD0000730039B002B03D10B49A92008F046FB5C
:109AE000039B1B6802991846FFF7DDFE9DF80730BF
:109AF000002B05D0039B1B6802991846FFF76EFEEA
:109B000000BF05B05DF804FBA0B1030000B583B051
:109B100001900091019B002B03D10A49B32008F06A
:109B200025FB019B1B6800991846FFF7C6FE019BA9
:109B30001B6800991846FFF75BFE00BF03B05DF895
:109B400004FB00BFA0B1030000B583B001900B4639
:109B5000ADF80230019B002B03D10F49BA2008F069
:109B600005FB019B1B68BDF8022011461846FFF754
:109B700049FE0346002B09D0019B1B68BDF802205B
:109B800011461846FFF74BFE012300E0002318465C
:109B900003B05DF804FB00BFA0B1030082B00190E8
:109BA0000091019A009BD31A23F07F43184602B01C
:109BB0007047000000B58BB00390029101920093B2
:109BC000039B002B03D15749CD2008F0CFFA4FF467
:109BD0008032029B02FA03F30993029B50339BB23B
:109BE0009B00ADF82230019B23F07F43019309993C
:109BF0000398FFF78BFF039B1B681846FFF724FEB3
:109C00000790039B1B6802991846FFF7DBFD06903F
:109C1000039B1B68079A02991846FFF7C5FD039B33
:109C20001B68BDF8222011461846FFF7F8FD07997A
:109C30000698FFF7B3FF0346012B0AD11020FFF768
:109C40009BFD039B1B68BDF8222011461846FFF7B9
:109C5000E6FD039B1B681846FFF7F6FD0790079982
:109C60000198FFF79BFF0590039B1B680999184615
:109C7000FFF719FE059B012B15D1039B1868019B6B
:109C800001331A460299FFF78FFD1020FFF774FD8C
:109C9000039B1B681846FFF7D7FD0246079B9342BC
:109CA00035D00D2339E0039B1B68019A02991846B1
:109CB000FFF77AFD039B1B681846FFF7C5FD079069
:109CC000019B013B07991846FFF768FF0590009B31
:109CD000C3F1FF1303F57F43059A9A4201D90D237F
:109CE0001BE0059B002B12D1039B1868019B0133DD
:109CF0001A460299FFF758FD039B1B681846FFF7A9
:109D0000A3FD0246079B934201D00D2305E00122EB
:109D100009990398FFF7D6FE002318460BB05DF8AB
:109D200004FB00BFA0B1030000B583B001900B4657
:109D30008DF803309DF803301A4602210198FFF791
:109D4000C1FE00BF03B05DF804FB00B583B0019015
:109D50004FF482710198FFF7F7FE0346184603B0EF
:109D60005DF804FB00B583B0019000914FF48032A0
:109D7000009B02FA03F319460198FFF7C7FE00BFE4
:109D800003B05DF804FB00B585B001900091009B25
:109D900050339BB29B00ADF80E30BDF80E30194623
:109DA0000198FFF7D1FE0346184605B05DF804FBA5
:109DB00000B583B001900091019B1B680099184683
:109DC000FFF700FD0346184603B05DF804FB00B53D
:109DD00083B00190019B1B681846FFF735FD0346D1
:109DE000184603B05DF804FB00B583B00190019BF9
:109DF00093F904301846FFF741FC00BF03B05DF84B
:109E000004FB000008B5044B1B68044A12681046A6
:109E1000984700BF08BD00BF88A500208CA5002082
:109E200086B001900091019B53E8011F8AB2D88946
:109E300002449889824228BF121A1889824202BFBE
:109E4000BFF32F8F002307E0C2EA010243E801209D
:109E50000028E9D14FF001038DF80F3005900291F1
:109E60000492029A009B1A609DF80F30DBB21846EC
:109E700006B0704784B00190019951E8013FC3EAF0
:109E8000034341E80132002AF7D10392029300BF55
:109E900004B0704786B001900091019B53E8021F07
:109EA0001FFAA1F2D888824202BFBFF32F8F00238E
:109EB0000DE0D88902449889824228BF121AC1EA6B
:109EC000024243E802200028E8D14FF001038DF858
:109ED0000F30059002910492029A009B1A609DF83F
:109EE0000F30DBB2184606B0704784B0019001997C
:109EF00051E8023FC3EA234341E80232002AF7D186
:109F00000392029300BF04B0704786B00190019B9A
:109F100053E8021FDA88B1EB314F4FF0000017BF52
:109F200089B242EA024241EA024204E05968B1EBD6
:109F3000314F08BF012043E802210029E8D18DF804
:109F40000F00059104929DF80F30DBB2184606B061
:109F5000704784B00390029111461A460B46ADF843
:109F600006301346ADF80430029B002B01D10E23BE
:109F70001FE0BDF80630BDF80420B3FBF2F101FB91
:109F800002F29B1A9BB2002B01D0092311E0039B24
:109F9000029A1A60039B00225A60039B00229A6077
:109FA000039BBDF806209A81039BBDF80420DA814B
:109FB0000023184604B0704700B585B001900198A1
:109FC000FFF7A3FF03468DF80F309DF80F30002BED
:109FD00001D0002300E01123184605B05DF804FB12
:109FE00000B585B001900091009B19460198FFF7DC
:109FF00017FF0346002B07D0019B1B68009A1288AD
:10A0000013440393039B00E00023184605B05DF85A
:10A0100004FB00B583B001900091009B1A88009B5F
:10A020005B889A4204D10198FFF724FF012300E0E6
:10A030000023184603B05DF804FB00B585B001901D
:10A040000091009B19460198FFF724FF0346002B5F
:10A0500007D0019B1B68009A528813440393039B0B
:10A0600000E00023184605B05DF804FB00B583B09E
:10A0700001900091009B1A88009B5B889A4204D152
:10A080000198FFF732FF012300E00023184603B0D8
:10A090005DF804FB10B487B001900091019B009A19
:10A0A00053E8004F104643E8000191F0000FF7D14C
:10A0B000059404900391059B184607B05DF8044B86
:10A0C000704710B487B001900091019B009A53E84B
:10A0D000004F44EA020043E8000191F0000FF6D17E
:10A0E000059404900391059B184607B05DF8044B56
:10A0F000704710B487B001900091019B009A53E81B
:10A10000004F44EA020043E8000191F0000FF6D14D
:10A11000059404900391049B184607B05DF8044B26
:10A12000704710B487B001900091019B009A53E8EA
:10A13000004F04EA020043E8000191F0000FF6D15D
:10A14000059404900391059B184607B05DF8044BF5
:10A15000704710B487B001900091019B009A53E8BA
:10A16000004F04EA020043E8000191F0000FF6D12D
:10A17000059404900391049B184607B05DF8044BC6
:10A18000704710B487B001900091019B009A53E88A
:10A19000004F04EB020043E8000191F0000FF6D1FC
:10A1A000059404900391049B184607B05DF8044B96
:10A1B000704710B487B001900091019B009A53E85A
:10A1C000004FA4EB020043E8000191F0000FF6D12C
:10A1D000059404900391049B184607B05DF8044B66
:10A1E000704700B583B0019001210198FFF769FF26
:10A1F0000346184603B05DF804FB00B583B0019038
:10A2000001210198FFF775FF0346184603B05DF87A
:10A2100004FB00B583B0019000210198FFF781FF96
:10A220000346184603B05DF804FB000000B583B098
:10A2300001900B468DF80330019B002B03D1084998
:10A24000E82007F093FF019BDA689DF8033001993D
:10A25000098A01FB03F31344184603B05DF804FBBD
:10A2600058B2030000B583B001900091019B002B10
:10A2700003D10849F52007F079FF009B019AD268C5
:10A280009B1A019A128AB3FBF2F3DBB2184603B0B1
:10A290005DF804FB58B2030000B585B00190019B46
:10A2A000002B01D10E234CE0019B1B68002B03D136
:10A2B0002649FF2007F05AFF019B5B68002B04D161
:10A2C00022494FF4807007F051FF019B9B68002BDF
:10A2D00004D11E4940F2011007F048FF019BDB68E2
:10A2E000002B04D119494FF4817007F03FFF019B07
:10A2F0001B8A002B04D1154940F2031007F036FFEA
:10A30000019B9A68019B5B68D31A8DF80F30019B03
:10A310001B68019A52681A6007E0019B1A6813686B
:10A32000591C11609DF80F201A709DF80F305A1EAD
:10A330008DF80F20002BF0D1019B1B6800221A71B1
:10A340000023184605B05DF804FB00BF58B20300B7
:10A3500000B585B00190019B002B04D11F494FF43B
:10A36000927007F003FF0023039300238DF80A3057
:10A370000DF10A031846FFF719F9019B1B681A68CB
:10A38000019B5B689A421FD9019B1B681A68013ABE
:10A390001A601B681B7819460198FFF747FF039066
:10A3A000019B9A68019B1B681B68D31A8DF80B30C0
:10A3B000019B1B681B799DF80B209A4204D9019BD5
:10A3C0001B689DF80B201A719DF80A301846FFF79C
:10A3D00003F9039B184605B05DF804FB58B203006F
:10A3E00010B584B001900091019B002B04D1154958
:10A3F00040F2471007F0BAFE009B002B04D1114930
:10A400004FF4A47007F0B2FE009B039300238DF875
:10A410000B300DF10B031846FFF7C8F8019B1B68C2
:10A420001C68621C1A6003990198FFF71BFF034622
:10A4300023709DF80B301846FFF7CEF800BF04B02C
:10A4400010BD00BF58B2030000B583B00190019B5E
:10A45000002B03D10C49312007F088FE019B9B683B
:10A46000002B0CD0019B5B69019A1069019A11685D
:10A47000019A92689847019B00229A6000E000BF11
:10A4800003B05DF804FB00BFC0B203000EB400B51A
:10A4900084B00190019B002B03D11849422007F0A2
:10A4A00065FE019B5B69002B03D11449432007F033
:10A4B0005DFE019B1B68002B03D11049442007F06F
:10A4C00055FE019B5B68002B03D10C49452007F02A
:10A4D0004DFE059B002B0AD00023039306AB03938C
:10A4E00003AB1A460599019800F0B8F900E000BFE7
:10A4F00004B05DF804EB03B0704700BFC0B20300C6
:10A5000000B583B001900B468DF803309DF8033001
:10A510000A2B03D10D210198FFF7F2FF019B1A6866
:10A52000019B9B68581C0199886013449DF8032087
:10A530001A70019B9A68019B5B689A4202D301984A
:10A54000FFF782FF00BF03B05DF804FB00B587B0E2
:10A55000039002910192009300230593009B03F066
:10A560000103002B24D00BE0029B01330293059BD7
:10A57000013305939DF8133019460398FFF7C0FF88
:10A58000029B1B788DF813309DF81330002BEBD114
:10A5900006E0019B013B019320210398FFF7B0FFE8
:10A5A000019A059B9A422ED9019B002BF1D12AE0FA
:10A5B000029B002B0BD002980FF011FF059006E0D4
:10A5C000019B013B019320210398FFF799FF019A1A
:10A5D000059B9A420FD9019B002BF1D10BE0029B06
:10A5E00001330293059B013305939DF813301946FF
:10A5F0000398FFF785FF029B1B788DF813309DF8B9
:10A600001330002BEBD100BF07B05DF804FB000056
:10A6100000B589B00390029101920093029B0793C9
:10A620000123069307E0079A019BB2FBF3F307931C
:10A63000069B01330693079A019B9A42F3D2009A34
:10A64000069B9A4201D9009B06930B9B03F00103E2
:10A65000002B22D10A9B002B1FD00B9B03F002037F
:10A66000002B06D0009B002B03D130238DF8173030
:10A6700002E020238DF8173008E00A9B013B0A9383
:10A680009DF8173019460398FFF73AFF0A9B002BF5
:10A6900003D0069A0A9B9A42EFD301230793009BAB
:10A6A000012B03D9009B013B009309E0029A079B11
:10A6B000B2FBF3F30493049A019B9A4200D205E0A3
:10A6C000079B019A02FB03F30793E8E7029A079BB3
:10A6D000B2FBF3F30493049B079A02FB03F3029A81
:10A6E000D31A0293154A049B13441B781946039806
:10A6F000FFF706FF079A019BB2FBF3F30793079B53
:10A70000002BE3D10B9B03F00103002B11D00A9B1C
:10A71000002B0ED006E00A9B013B0A9320210398F0
:10A72000FFF7EEFE0A9B002B03D0069A0A9B9A4283
:10A73000F1D300BF09B05DF804FB00BF88B303008C
:10A7400000B589B00590049103920293049B002BFD
:10A75000B8BF5B4206930123079307E0039B069A69
:10A7600092FBF3F30693079B01330793039B069A2F
:10A770009A42F3DA029A079B9A4201D9029B079305
:10A780000A9B002B0AD0049B002B04DB0B9B03F0DD
:10A790000403002B02D00A9B013B0A930B9B03F09E
:10A7A0000203002B02D0029B002B16D00B9B03F060
:10A7B0000103002B11D10A9B002B0ED006E00A9B4F
:10A7C000013B0A9320210598FFF79AFE0A9B002B74
:10A7D00003D0079A0A9B9A42F1D3049B002B07DA15
:10A7E000049B5B4204932D210598FFF789FE08E046
:10A7F0000B9B03F00403002B03D02B210598FFF7DC
:10A800007FFE0B9B03F00203002B19D00B9B03F080
:10A810000103002B14D1029B002B11D10A9B002BAA
:10A820000ED006E00A9B013B0A9330210598FFF702
:10A8300067FE0A9B002B03D0079A0A9B9A42F1D32A
:10A8400004990B9B01930A9B0093029B039A059822
:10A85000FFF7DEFE00BF09B05DF804FB00B58FB066
:10A86000059004910392059B002B04D1AD4940F261
:10A87000522007F07BFC059B5B69002B04D1A949A2
:10A880004FF4157007F072FC059B1B68002B04D178
:10A89000A44940F2552007F069FC059B5B68002B3A
:10A8A00004D1A04940F2562007F060FC049B002B25
:10A8B00000F09381049B1B788DF83730049B0133A3
:10A8C00004939DF83730002B00F07E819DF83730DF
:10A8D000252B40F06D8100230A9301230C93049BE8
:10A8E0001B788DF837309DF83730302B0DD0302B5A
:10A8F0001BDC2B2B11D02D2B17D10A9B43F001030E
:10A900000A93049B0133049312E00A9B43F0020371
:10A910000A93049B013304930AE00A9B43F0040367
:10A920000A93049B0133049302E000230C9300BFBD
:10A930000C9B002BD3D1002309939DF837302A2B91
:10A940000CD1039B1B68191D039A11601B68099A9F
:10A9500013440993049B013304931AE0049B1B786E
:10A960008DF837309DF837302F2B12D99DF83730BE
:10A97000392B0ED8049B01330493099A13469B008C
:10A9800013445B001A469DF837301344303B09935B
:10A99000D3E700230B93049B1B788DF837309DF889
:10A9A00037302E2B1DD1049B01330493049B1B785D
:10A9B0008DF837309DF837302F2B12D99DF837306E
:10A9C000392B0ED8049B013304930B9A13469B003A
:10A9D00013445B001A469DF837301344303B0B9309
:10A9E000E4E7049B1B788DF837309DF837306C2BEB
:10A9F00003D09DF83730682B07D1049B01330493B3
:10AA0000049B1B788DF83730EFE79DF83730252B06
:10AA100000F0C480252BC0F2C680782B00F3C380E1
:10AA2000582BC0F2C080583B202B00F2BC8001A202
:10AA300052F823F029AB0200A7AB0200A7AB02003B
:10AA4000A7AB0200A7AB0200A7AB0200A7AB0200B6
:10AA5000A7AB0200A7AB0200A7AB0200A7AB0200A6
:10AA6000B9AA0200DBAA0200A7AB0200A7AB020052
:10AA7000A7AB0200A7AB0200DBAA0200A7AB020053
:10AA8000A7AB0200A7AB0200A7AB0200A7AB020076
:10AA9000A7AB020069AB0200A7AB0200A7AB0200A4
:10AAA0004DAB0200A7AB0200FFAA0200A7AB020059
:10AAB000A7AB020029AB0200039B1B68191D039A78
:10AAC00011601B680C930C9B8DF81F309DF81F3094
:10AAD00019460598FFF714FD66E0039B1B68191DD6
:10AAE000039A11601B680C930A9B0193099B0093C6
:10AAF0000B9B0A220C990598FFF722FE54E0039B5A
:10AB00001B68191D039A11601B680C930C990A9B12
:10AB10000193099B00930B9B0A220598FFF778FD90
:10AB200042E000BF20B30300039B1B68191D039A7A
:10AB300011601B680C930C990A9B0193099B00936D
:10AB40000B9B10220598FFF763FD2DE0039B1B680C
:10AB5000191D039A11601B6808930A9B099A0899AA
:10AB60000598FFF7F3FC1FE0039B1B68191D039A70
:10AB700011601B680C9330210598FFF7C1FC782108
:10AB80000598FFF7BDFC0C9900230193082300935F
:10AB9000082310220598FFF73BFD05E025210598C5
:10ABA000FFF7AEFC00E000BF049B0133049305E017
:10ABB0009DF8373019460598FFF7A2FC049B1B78D7
:10ABC000002B7FF477AE00E000BF059B1B7B002BC2
:10ABD00004D00598FFF738FC00E000BF0FB05DF827
:10ABE00004FB00BF00B583B001900198FFF754FB50
:10ABF0000346184603B05DF804FB00B58BB0019026
:10AC00000091019B1B8A043B0793009A079B134406
:10AC1000DA1C079BB2FBF3F38DF81B300198FFF7AA
:10AC200097FB0590059B002B01D1002338E0059B85
:10AC300000221A71059B01225A71079B9AB2059B4B
:10AC4000DA80059B09939DF81B30013B0493099B17
:10AC5000019A1A60002308931DE00198FFF778FB22
:10AC60000390039B002B0ED0059B5B790133DAB276
:10AC7000059B5A71099B039A1A60039B019A1A60FB
:10AC8000039B099304E0059800F00EF8002307E009
:10AC9000089B01330893089A049B9A42DDD3059BD5
:10ACA00018460BB05DF804FB00B58BB00190019B1A
:10ACB0000793079B5B798DF81B30019B08939DF8E8
:10ACC0001B30013B05930023099305E0089B1B689B
:10ACD0000893099B01330993099A059B9A42F5D37E
:10ACE000089B1B680493019B0893002309930BE0C6
:10ACF000089B1B68039308990498FFF771FB039B5B
:10AD00000893099B013309939DF81B30099A9A42D5
:10AD1000EED300BF00BF0BB05DF804FB00B585B0FB
:10AD20000190019B0393039B043301211846FFF715
:10AD300028FA00BF05B05DF804FB00B587B00190AC
:10AD4000019B0593059B043301211846FFF731FA57
:10AD50000346039303AB0493049B1B78002B02D19F
:10AD60000198FFF7A1FF00BF07B05DF804FB0000EA
:10AD700000B591B00390029101920093039B002BC8
:10AD800003D14349B62007F0F1F9039B0993039BD4
:10AD90000F93099BDB881A46099B5B7902FB03F33F
:10ADA000043B0893009A089B9A4203D33849C42075
:10ADB00007F0DCF9099BDB880793009B1A1D079BB2
:10ADC000B2FBF3F30E93009B0433079AB3FBF2F24A
:10ADD000079901FB02F29B1A0D93019B1A68009BD5
:10ADE0001344089A9A4203D2089A009BD31A01E0AE
:10ADF000019B1B680C93019B0C9A1A6005E00F9B4A
:10AE00001B680F930E9B013B0E930E9B002BF6D1FC
:10AE100000230B93079A0D9BD31A0A930A9A0C9B53
:10AE2000934228BF13460A932AE0029A0B9B1344CD
:10AE300006930F9A0D9B1344043305939DF84830F5
:10AE4000002B05D00A9A059906980FF06CFA04E0D9
:10AE50000A9A069905980FF066FA00230D930F9B46
:10AE60001B680F930C9A0A9BD31A0C930B9A0A9B9C
:10AE700013440B93079A0C9B934228BF13460A93E3
:10AE80000C9B002BD1D100BF00BF11B05DF804FBBB
:10AE900098B3030000B589B0059004910392029322
:10AEA000039B079307AA00230093029B049905982C
:10AEB000FFF75EFF079B039A9A4203D00349F620EF
:10AEC00007F054F900BF09B05DF804FB98B3030024
:10AED00000B589B00590049103920293039B0793F8
:10AEE00007AA01230093029B04990598FFF740FFEE
:10AEF000079B039A9A4204D004494FF4807007F0EC
:10AF000035F900BF09B05DF804FB00BF98B303003A
:10AF100082B003468DF807309DF90730002B0DDB1A
:10AF20009DF8073003F01F0206499DF907305B09C1
:10AF3000012000FA02F2603341F8232000BF02B082
:10AF4000704700BF00E100E000B583B00190019BB5
:10AF5000002B03D10649722007F008F9019B00225B
:10AF60001A60BFF35F8F00BF00BF03B05DF804FB42
:10AF700054B4030041DF704700BF184600B585B0E8
:10AF800000238DF807300DF107031846FEF70EFB7E
:10AF9000F1EE103A0393039B23F09F030293029B6D
:10AFA000E1EE103A00BFBFF35F8F00BF2620FFF72E
:10AFB000AFFF9DF807301846FEF70EFB039B03F02A
:10AFC0000703002B03D004497D2007F0CFF800BF12
:10AFD00005B05DF804FB00BF98B4030008B5064B4C
:10AFE00000221A700548FFF7AFFF0549054800F039
:10AFF00061FA0023184608BD98A5002094A50020FA
:10B0000004B503009CA5002000B583B0FFF7B6FF90
:10B010000CF01AF90346002B0ED0FFF7ABFF01909E
:10B02000019B002B0BD0019B022B08D006494FF44B
:10B03000B07007F09BF802E020BF40BF20BF00BF08
:10B0400003B05DF804FB00BF98B4030082B0019028
:10B05000019B9B68024A12781344184602B070475D
:10B0600076B5030000B583B001900091019B002BE1
:10B0700003D10849832007F079F8019B9B68009A67
:10B080009A4202D2009B013300E00023184603B02D
:10B090005DF804FB10B5030000B585B00190019B7D
:10B0A0001B681B680393019B1B685B680293029AF1
:10B0B000039B9A4203D3029A039BD31A07E0019899
:10B0C000FFF7C4FF0246039BD21A029B13441846A3
:10B0D00005B05DF804FB000000B585B00190019B50
:10B0E000002B03D10D49982007F040F8019B1B6805
:10B0F0001B680393019B1B685B680293029901988C
:10B10000FFF7B0FF0246039B93420CBF01230023CD
:10B11000DBB2184605B05DF804FB00BF10B50300B4
:10B1200010B588B00190009100230793019B002B7C
:10B1300003D15649A32007F019F8009B002B03D137
:10B140005249A42007F012F800238DF80F300DF1BA
:10B150000F031846FEF72AFA0198FFF7BDFF0346D2
:10B160008DF81B309DF81B3083F00103DBB2002B00
:10B1700003D1019B1B7C002B7BD1019B1B685B686F
:10B180000593019B1B685A68019B1C681146019836
:10B19000FFF768FF034663609DF81B30002B0AD061
:10B1A000019B1B681A68019B1C6811460198FFF7F8
:10B1B00059FF03462360019BDB68013B072B38D80E
:10B1C00001A252F823F000BFE9B10200F9B1020078
:10B1D00033B202000BB2020033B2020033B20200FB
:10B1E00033B202001DB20200019B5A68059B134452
:10B1F000009A12781A702DE0019B5A68059B5B003B
:10B200001344009A12881A8024E0019B5A68059B17
:10B210009B001344009A12681A601BE0019B5A6855
:10B22000059BDB00D118009BD3E90023C1E9002373
:10B2300010E0019B5B681946019BDB68059A02FBE5
:10B2400003F30B441846019BDB681A4600990FF084
:10B250006AF800BF0198FFF71FFF0490019B1B686D
:10B260009B68049A9A4207D9019B1B68049A9A60CA
:10B2700002E00423079300E000BF9DF80F3018465A
:10B28000FEF7AAF9079B184608B010BD10B50300D9
:10B2900010B588B00390029113468DF80730002353
:10B2A0000793039B002B03D14549E72006F05EFF7F
:10B2B000029B002B03D14249E82006F057FF0023F0
:10B2C0008DF817300DF117031846FEF76FF9039844
:10B2D00000F09EF8034683F00103DBB2002B63D03D
:10B2E000039B1B681B6806939DF8073083F00103DE
:10B2F000DBB2002B0AD0039B1B681A68039B1C68F7
:10B3000011460398FFF7AEFE03462360039BDB68FC
:10B31000013B072B37D801A252F823F03DB30200BE
:10B320004DB3020087B302005FB3020087B302008F
:10B3300087B3020087B3020071B30200039B5A680F
:10B34000069B13441A78029B1A702FE0039B5A68DD
:10B35000069B5B0013441A88029B1A8026E0039B1D
:10B360005A68069B9B0013441A68029B1A601DE0F2
:10B37000039B5A68069BDB001344D3E90023029920
:10B38000C1E9002312E0039B5B681946039BDB685D
:10B39000069A02FB03F30B441946039BDB681A462B
:10B3A00002980EF0C0FF01E0052307939DF81730C7
:10B3B0001846FEF711F9079B184608B010BD00BFEC
:10B3C00010B5030000B585B00190019B002B04D19E
:10B3D0000E494FF4047006F0C9FE00238DF80F30BB
:10B3E0000DF10F031846FEF7E1F8019B1B680C22D4
:10B3F000002118460EF0C0FF9DF80F301846FEF7EA
:10B40000EBF800BF05B05DF804FB00BF10B503000A
:10B4100000B585B00190019B002B04D10B4940F28F
:10B420002B2006F0A3FE019B1B681B680393019B66
:10B430001B685B680293039A029B9A420CBF01232C
:10B440000023DBB2184605B05DF804FB10B503001D
:10B4500000B583B00190019B002B04D1054940F257
:10B46000392006F083FE019B1B689B68184603B0D9
:10B470005DF804FB10B5030082B00190019B9B684E
:10B4800000229A60019B9B6800221A61019B9B68C5
:10B4900000225A61019B9B680022DA60019B9B6835
:10B4A00000225A60019B9B6800221A6000BF02B014
:10B4B0007047000000B583B001900091019B002B04
:10B4C00003D11049502006F051FE009B002B03D100
:10B4D0000C49512006F04AFE019B009A1A60019B1C
:10B4E0001B681A68019B5A60019B5A68019B1B6884
:10B4F0005B689A4202D1019B00225A6000BF03B0F0
:10B500005DF804FB78B5030000B583B00190019BA2
:10B51000002B03D11449632006F028FE019B1B6811
:10B52000002B03D11049642006F020FE019B5B68CC
:10B53000002B14D0019B5B681A46019B1B689B681B
:10B5400013441A46019B5A60019B5A68019B1B6871
:10B550005B689A4204D1019B00225A6000E000BF60
:10B5600003B05DF804FB00BF78B5030000B585B0FB
:10B5700001900091019B002B03D118493A2006F05D
:10B58000F5FD009B002B03D114493B2006F0EEFD96
:10B59000019B5B6803930FE0019B9B68039A126811
:10B5A000009910469847034683F00103DBB2002B55
:10B5B00007D1039B1B680393039B1B68002BEBD1F4
:10B5C00000E000BF039B1A68009B1A60039B009A6F
:10B5D0001A6000BF05B05DF804FB00BF08B60300A9
:10B5E00000B585B00190019B002B03D10C4951207F
:10B5F00006F0BCFD019B5B681B680393019B5B68C5
:10B600001B68002B06D0019B5B681A68019B5B6876
:10B6100012681A60039B184605B05DF804FB00BF72
:10B6200008B6030000B583B00190019B002B03D145
:10B6300005495D2006F09AFD019B5B681B68184672
:10B6400003B05DF804FB00BF08B6030000B585B089
:10B6500001900091019B002B03D11649692006F04F
:10B6600085FD009B002B03D112496A2006F07EFD68
:10B6700000238DF80B30019B5B6803930FE0039B65
:10B680001B68009A9A4207D1009B1A68039B1A60B4
:10B6900001238DF80B3006E0039B1B680393039B8B
:10B6A0001B68002BEBD19DF80B30184605B05DF8F8
:10B6B00004FB00BF08B6030000B585B001900198F7
:10B6C00000F00EF80390039B002B01D0039B00E0D9
:10B6D000024B184605B05DF804FB00BF74B60300CA
:10B6E00086B00190164B0593164B04931FE0049A05
:10B6F000059BD31ADB10DA0F13445B10DB00059AAD
:10B7000013440393039B1B680293029A019B9A4282
:10B7100002D9039B04930AE0029A019B9A4203D246
:10B72000039B0833059302E0039B5B6804E0059AE2
:10B73000049B9A42DBD30023184606B0704700BF33
:10B7400074BA03009CBB030082B001900B468DF8D5
:10B7500003309DF80330019A134401221A6000BFA0
:10B7600002B0704782B001900B468DF803309DF80F
:10B770000330019A1344184602B0704782B001901A
:10B780000B46ADF80230BDF80230019A134418465A
:10B7900002B0704782B00190019B9B0003F5A0733B
:10B7A0009BB2184602B0704700B583B001900B46BB
:10B7B0008DF80330019B1B689DF803201146184645
:10B7C000FFF7D0FF0346184603B05DF804FB000006
:10B7D00010B582B001900091019B5B791A46009BE5
:10B7E000934204D3094940F2711006F0BFFC019B5B
:10B7F0001C680098FFF7CEFF034619462046FFF766
:10B80000BDFF0346184602B010BD00BF9CBB03003D
:10B8100082B001900B46ADF80230BDF80220019BCA
:10B820001344184602B0704782B001900B468DF861
:10B8300003309DF80320019B1344184602B0704763
:10B8400082B001900B468DF803309DF80320019BD8
:10B8500013441A460123136000BF02B0704700B5BD
:10B8600083B00190019B1B6808211846FFF7E8FF91
:10B8700000BF03B05DF804FB00B583B001900B4638
:10B880008DF80330019B1B689DF803201146184674
:10B89000FFF7CAFF0346184603B05DF804FB00B586
:10B8A00083B001900B46ADF80230019B1B68BDF8D8
:10B8B000022011461846FFF7ABFF0346184603B0B7
:10B8C0005DF804FB82B001900B46ADF80230BDF884
:10B8D0000230019A1344184602B0704782B0034602
:10B8E0008DF807309DF80730024AD35C184602B045
:10B8F000704700BF64BC03002DE9F00F82B00190D7
:10B90000019900200E460746304639464FF0000A9E
:10B910004FF0000B4FEA411B4BEAD06B4FEA401A45
:10B9200050465946841B61EB07054FF000004FF06D
:10B930000001A90141EA9461A001021B61EB05032A
:10B940004FF000004FF00001D90041EA5271D000E1
:10B9500002460B4612EB060843EB07094FF00002C4
:10B960004FF000034FEAC91343EA58634FEAC81285
:10B9700090469946404649464FF000024FF000037A
:10B98000C20B42EA4142CB0B1346184602B0BDE857
:10B99000F00F704700B583B00190019900200A466E
:10B9A00003464FF000004FF00001990341EA924135
:10B9B0009003064A4FF000030EF064FB02460B466C
:10B9C0001346184603B05DF804FB00BF40420F0069
:10B9D00000B585B00190019B1B681846FEF7B8FCC6
:10B9E00003460293029B002B01D100231AE0019B26
:10B9F0005B6802AA11461846FFF792FB0390039B6F
:10BA0000002B01D000230DE0019BDB69DA680132D5
:10BA1000DA60019B98690299019B5B6A1A4601F002
:10BA200005FC0123184605B05DF804FB00B597B08E
:10BA300001900091019B0F93009B1B78042B00F257
:10BA4000D38001A252F823F0D5BA020083BA0200D3
:10BA50005DBA020075BB0200A1BB020001238DF894
:10BA60002C30009B5B680C93009B9B680D930F9B95
:10BA7000DB691B680F9AD26952680BA91046984778
:10BA8000C5E00F9BDB6993F82630002B40F0B880AF
:10BA90000F98FFF79DFF034683F00103DBB2002BF5
:10BAA00000F0B0800F9BDB6993F82530002B05D0A8
:10BAB0000F9BDB69012283F82620A3E00023129369
:10BAC000129B002B40F09E80534AE6210020FDF798
:10BAD000AFF897E0009B9A680F9BDB695B69D31A0C
:10BAE0001193119B002B39D00F9BDB6919690F9BB8
:10BAF000DB69119A0A441A6100238DF82030009BFB
:10BB00005A680F9BDB695B6913440993119B0A9385
:10BB10000F9BDB6900225A610F9B58680F9BDB6902
:10BB2000183300221946FFF7B3FB1490149B002B27
:10BB30000AD000231393139B002B05D1364A40F201
:10BB40000B110020FDF774F80F9BDB691B680F9A3F
:10BB5000D269526808A91046984755E0002310930F
:10BB6000109B002B50D12C4A4FF48A710020FDF716
:10BB70005FF849E005AB00221A605A609A60022320
:10BB80008DF81430009B1B798DF818300F9BDB6902
:10BB90001B680F9AD269526805A91046984736E08B
:10BBA000009B5A680F9BDB695B69D31A0E930F9B4E
:10BBB000DB6919690F9BDB690E9A0A441A6102ABB3
:10BBC00000221A605A609A6003238DF80830009BA7
:10BBD0005B6803930F9BDB691B680F9AD2695268FD
:10BBE00002A91046984712E000231593159B002BDD
:10BBF0000CD1094A4FF499710020FDF719F805E0BE
:10BC000000BF04E000BF02E000BF00E000BF00BFD3
:10BC100017B05DF804FB00BFE8BB030000B589B0B6
:10BC20000190019B9B695B68D3F84C350793019B9E
:10BC3000DB691B69079A9A4227D9019BDB691B695B
:10BC4000079AD31A069300238DF80C30019BDB6909
:10BC50009A69019BDB695B6913440493069B059316
:10BC6000019BDB695969019BDB69069A0A445A61A9
:10BC7000019BDB69079A1A61019BDB691B68019ACA
:10BC8000D269526803A91046984700BF09B05DF811
:10BC900004FB00B583B003460091ADF80630009870
:10BCA000FFF7BCFF00BF03B05DF804FB00B589B02F
:10BCB0000190019B0793FDF7FBFB0690079BDB6957
:10BCC0001B6A1846FFF766FE03465B080593059B53
:10BCD000052B38BF05230593079BDB6993F82730B5
:10BCE00083F00103DBB2002B45D1079B9B695B68A6
:10BCF0004C211846FFF728FD079B9B695B68D3F82A
:10BD00004C350493079B1B691B68079A05991846D5
:10BD1000FDF76EFB079B5B691B68049A9A420CD087
:10BD2000079B5B69049A1A60079B5B69069A5A60D5
:10BD3000079B5B6901221A721EE0079B5B695B68C7
:10BD400019460698FDF7A8FB0390079B5B691B7AD1
:10BD5000002B11D00398FFF7CFFD0246079BDB694C
:10BD60001B6A9A4208D9079B5B6900221A720798DE
:10BD7000FFF754FF00E000BF09B05DF804FB0000CE
:10BD800010B59AB00390029101920093029B5B7FE1
:10BD9000072B07D0039B1B69002B05D0029B5B7F01
:10BDA000062B01D90723DDE1039BDB6993F82730DC
:10BDB000002B01D00823D5E1039BDB69019A1A60AF
:10BDC000039BDB6900221A61039BDB6900229A61F5
:10BDD000039BDB690022DA61039BDB6900225A6165
:10BDE000039BDB690022DA60039BDB69009A5A60DF
:10BDF000039BDB69029A12691A62039BDB690022CA
:10BE000083F82620029B1A7D039BDB69012A0CBF65
:10BE100001220022D2B283F82520002318930023A8
:10BE200017930023169300231593039B9B68002B05
:10BE30004CD09F4A06AB92E8030018600433198087
:10BE4000029B5B7F1846FFF749FD03468DF81A30C9
:10BE50000023ADF81830039B9868039B1A6A06AB61
:10BE6000194605F059F81390139B002B01D00323BA
:10BE700078E1039B9868029B1B695A090123002102
:10BE800005F0BCF81390139B002B01D0032369E14C
:10BE9000039B9B6800211846FFF7EEFC1890039B5C
:10BEA0009B6808211846FFF7E7FC1790039B9B68E7
:10BEB00004211846FFF7E0FC1690039B9B684FF4A3
:10BEC000A0711846FFF7EBFC159089E0039BDB6837
:10BED000002B4CD000238DF8103000238DF811304A
:10BEE00000238DF8123006238DF8133000230593BC
:10BEF00004238DF81030039B0593029B5B7F18464B
:10BF0000FFF7ECFC03468DF81330039BDB6804A9B4
:10BF1000684A184604F02CF91390139B002B01D0AB
:10BF200003231FE1039BD868029B1A6901230021A8
:10BF300004F072FA039BDB6800211846FFF734FC1B
:10BF40001890039BDB680C211846FFF72DFC179017
:10BF5000039BDB6810211846FFF726FC1690039B15
:10BF6000DB6800211846FFF733FC159038E0039B8F
:10BF70001B69002B27D0039BDB6993F8243083F0E7
:10BF80000103DBB2002B11D0039B1B694A4A00213D
:10BF90001846FDF7F9F91390139B002B01D0139B62
:10BFA000E0E0039BDB69012283F82420039B5B69AB
:10BFB00000221A72039B5B6900221A60039B5B6973
:10BFC00000225A600CE000231493149B002B05D12F
:10BFD0003A4A4FF4F2710020FCF72AFE0323C1E035
:10BFE000039B1B69002B6BD10023199310E0039B6B
:10BFF000DA69199B08331344184604F033FC139094
:10C00000139B002B01D00323ACE0199B0133199340
:10C01000199B012BEBD9039BDB691C7A039B9B6962
:10C02000DB684FF484711846FFF74CFC0346189AFE
:10C030001946204604F0A1FC1390139B002B01D05D
:10C0400003238FE0179B002B0CD0039BDB691B7A2B
:10C050001799184604F0CAFC1390139B002B01D0CB
:10C0600003237FE0039BDB695B7A169A15991846D8
:10C0700004F083FC1390139B002B01D0032371E089
:10C08000039B9B695B684C33002B19D0039BDB69D6
:10C090005A7A039B9B695B684C331946104604F03F
:10C0A000A5FC1390139B002B0AD003235AE000BF7A
:10C0B0005CBC030093BC0200ADBC0200E8BB030003
:10C0C000029B5B680893029B1B680993029B9B6819
:10C0D0000A93029BDB680B93039B9B69DB684FF41D
:10C0E00088711846FFF7EEFB03460C9300230D936F
:10C0F00000230E9300230F93029B1B7D8DF840308D
:10C10000029B5B7D8DF84130029B9B691193029BE2
:10C110005B7F8DF84830029B1B7F8DF84930039B75
:10C12000986908A9039B114A00F0ACFE1390139B79
:10C13000002B01D0139B15E0039B1B681846FEF7EC
:10C14000ABF81390139B002B01D0139B0AE0039BC9
:10C150005B681846FFF736F9039BDB69012283F819
:10C160002720139B18461AB010BD00BF2DBA02003D
:10C1700000B58BB00190019B1B681846FEF7E8F8EC
:10C180000990019BDB69DA680132DA60099B002BB8
:10C190000AD100230893089B002B05D1424A4FF493
:10C1A00015710020FCF744FD019B9B68002B05D016
:10C1B000019B9B681846FFF752FB08E0019BDB6878
:10C1C000002B04D0019BDB68184604F003F9019BA7
:10C1D0001B69002B2DD1019BDB691B7A184604F0EB
:10C1E00026FC0790079B002B0CBF01230023DBB22A
:10C1F0000693069B002B05D12B4A40F265210020B7
:10C20000FCF716FD019BDB695B7A184604F00FFC16
:10C210000790079B002B0CBF01230023DBB2059383
:10C22000059B002B05D1204A40F267210020FCF736
:10C23000FFFC019BDB69099A9A61019B9869019B4C
:10C240005A6A0023099900F091FF0490049B002B87
:10C250000CBF01230023DBB20393039B002B05D10A
:10C26000114A4FF41B710020FCF7E2FC019B1B6993
:10C27000002B15D0019BDB691B6A1846FFF78AFB70
:10C2800003465B080293029B052B38BF05230293EC
:10C29000019B1B691B68019A02991846FDF7A8F8D3
:10C2A00000BF0BB05DF804FBE8BB030000B585B030
:10C2B000039002910192039B9B69019A029918468F
:10C2C00000F0C8FE0346184605B05DF804FB000008
:10C2D00000B589B0039002910192039BDB69D96993
:10C2E000039BDB69019A0A44DA61039BDB69DA6923
:10C2F000039B5B6A9A4241D1039BDB69DB69019A2C
:10C30000D31A029A13440293039BDB690022DA6179
:10C31000039B1B6802991846FEF762F8039BDB69D2
:10C32000DA68013ADA60039BDB69DB68002B0ADA22
:10C3300000230793079B002B05D11B4A4FF4227162
:10C340000020FCF775FC039BDB6993F82630002B7B
:10C3500026D00398FFF73CFB03468DF81B309DF871
:10C360001B30002B04D1104940F28F2005F0FEFE57
:10C37000039BDB69002283F8262011E0039BDB6925
:10C38000DA69039B5B6A9A420AD900230593059BED
:10C39000002B05D1044A40F296210020FCF748FC0E
:10C3A00000BF09B05DF804FBE8BB030082B00346A0
:10C3B0008DF807309DF90730002B0CDB9DF8073016
:10C3C00003F01F0205499DF907305B09012000FABF
:10C3D00002F241F8232000BF02B0704700E100E004
:10C3E00082B003468DF807309DF90730002B0DDB36
:10C3F0009DF8073003F01F0206499DF907305B09DD
:10C40000012000FA02F2603341F8232000BF02B09D
:10C41000704700BF00E100E082B0034600918DF854
:10C4200007309DF90730002B0ADB009BDAB20C497C
:10C430009DF907305201D2B20B4483F800230BE080
:10C44000009BDAB207499DF8073003F00F03043B65
:10C450005201D2B20B441A7600BF02B0704700BF3F
:10C4600000E100E000ED00E082B00190019B1B0BB9
:10C470005BB2184602B0704784B001900B46ADF82D
:10C480000230BDF80230019A134400221A60BDF850
:10C490000230019A13441B680393039B00BF04B04E
:10C4A000704782B001900B46ADF80230BDF8023003
:10C4B000019A13441B68002B14BF01230023DBB235
:10C4C000184602B0704782B001900B46ADF80230BA
:10C4D000BDF80230019A1344184602B0704782B08A
:10C4E00001900091019B009AC3F8042300BF02B0A1
:10C4F000704784B00190019BD3F880340393019B73
:10C50000039AC3F88024039B184604B0704782B096
:10C510000190019B0822C3F8002500BF02B07047BC
:10C5200084B0039002910192039B029AC3F80C25F8
:10C53000039B019AC3F8142500BF04B0704782B072
:10C5400001900B468DF803309DF80330019A134497
:10C5500001221A6000BF02B0704782B001900B4602
:10C560008DF803309DF80320019B1344184602B058
:10C57000704782B001900B468DF8033013468DF85A
:10C5800002309DF803209DF802301343DBB21A46B7
:10C59000019BC3F86C2500BF02B0704782B00190C8
:10C5A0000091019B009AC3F8242500BF02B0704798
:10C5B00084B0039002910192029A039BC3F8442530
:10C5C000039B019AC3F8482500BF04B0704782B0AE
:10C5D0000190019BD3F84C35184602B0704784B0E7
:10C5E000039002910192029A039BC3F83425039BA6
:10C5F000019AC3F8382500BF04B0704782B00346E3
:10C600008DF807309DF80730DB0003F1804303F518
:10C61000F833184602B0704782B003468DF80730F1
:10C620009DF80730DB00043303F1804303F5F83352
:10C63000184602B0704782B003468DF807309DF867
:10C640000730012202FA03F3184602B0704700B522
:10C6500083B003460A468DF8073013468DF806303E
:10C660009DF807301846FFF7E6FF02469DF80630B2
:10C670001946104604F008FB0346184603B05DF85F
:10C6800004FB00B583B003468DF807309DF80730F2
:10C690001846FFF7B3FF0346184603B05DF804FBE6
:10C6A00000B583B003468DF807309DF80730184673
:10C6B000FFF7B2FF0346184603B05DF804FB82B0F3
:10C6C00001900B468DF803309DF80330019A134416
:10C6D000184602B0704782B001900B468DF80330C7
:10C6E0009DF80320019B02F5A87253F822301846EA
:10C6F00002B0704782B00190019B9B004033DBB2D7
:10C70000184602B0704700B583B001900B468DF813
:10C710000330019B1B689DF8032011461846FFF764
:10C72000CEFF0346184603B05DF804FB10B582B097
:10C7300001900091019B5B791A46009B934204D3C0
:10C74000094940F2631005F011FD019B1C68009837
:10C75000FFF7D0FF034619462046FFF7B0FF034618
:10C76000184602B010BD00BF6CBC030000B583B01A
:10C7700001900B468DF80330019B1B689DF8032048
:10C7800011461846FFF7A7FF0346184603B05DF8A9
:10C7900004FB000000B583B00190019B1B681846A4
:10C7A00000F093F80346002B04D10B494FF4F670C8
:10C7B00005F0DCFC019B1B681F2B02D84FF0A04347
:10C7C00006E0019B1B6803F01F02019B1A60034BEC
:10C7D000184603B05DF804FBA8BC0300000300503A
:10C7E00000B585B00190084611461A4603468DF8FB
:10C7F00003300B468DF8023013468DF8013001AB43
:10C800001846FFF7C7FF03909DF803209DF80230FC
:10C810005B001A439DF801309B001A439DF81830C5
:10C820001B0242EA03019DF81C301B04019A1943C4
:10C83000039B02F5E07243F8221000BF05B05DF8DB
:10C8400004FB00B585B003900023019300230093FF
:10C850000023012201210398FFF7C2FF00BF05B0AA
:10C860005DF804FB00B585B003900B468DF80B30E6
:10C870009DF80B300022019200220092002200213C
:10C880000398FFF7ADFF00BF05B05DF804FB00B5EE
:10C8900085B0019001AB1846FFF77CFF0390019B28
:10C8A000012202FA03F31946039800F004F800BFCE
:10C8B00005B05DF804FB82B001900091019B009AE5
:10C8C000C3F8082500BF02B0704784B00190019BF7
:10C8D0005B09029300230393029B002B03D0029B6E
:10C8E000012B04D007E04FF0FF33039303E04FF632
:10C8F000FF73039300BF019B03F01F030193039A8F
:10C90000019B22FA03F303F00103002B14BF012360
:10C910000023DBB2184604B0704700B587B003901F
:10C92000029101920093039803F09CFF0590059BF0
:10C93000002B01D004231CE0039B1B78019A029971
:10C94000184604F01AF80590059B002B01D003232C
:10C950000FE0009B002B0BD0039B1B78009918461F
:10C9600004F044F80590059B002B01D0032300E060
:10C970000023184607B05DF804FB00B587B00390AC
:10C98000019200930B468DF80B30039804F0BBF82E
:10C990000590059B002B01D004232DE0039B1A7802
:10C9A0009DF80B3011461846FFF751FE0590059B88
:10C9B000002B01D003231FE09DF82030002B0AD06C
:10C9C000039B1B78184604F032F90590059B002B59
:10C9D00001D0032310E0039B1B781846FFF751FE9C
:10C9E0000246019B1A60039B1B781846FFF758FE0E
:10C9F0000246009B1A600023184607B05DF804FB4E
:10CA000000B585B00190019B1B78184604F044F8EE
:10CA10000390039B002B03D00B49B42005F0A6FB29
:10CA2000019B1B78184603F077FF0390039B002BB4
:10CA300003D00549B62005F099FB019B14221A701A
:10CA400000BF05B05DF804FBE4BC030000B585B091
:10CA50000190019B1B78184604F0ABF80390039BF0
:10CA6000002B03D00549BF2005F080FB019B062267
:10CA70001A7000BF05B05DF804FB00BFE4BC030002
:10CA800000B585B001900023039310E0019B1A6864
:10CA9000039B13441B78132B06D8019B1A68039B36
:10CAA00013441846FFF7ACFF039B01330393039B2A
:10CAB000082BEBDD0023029313E0019B1A68029B15
:10CAC000134409331B78052B08D8019B1A68029B75
:10CAD0000833134401331846FFF7B8FF029B0133B4
