:020000022000DC
:1070000000000420757302005D7302005F730200CC
:1070100061730200637302006573020000000000E8
:107020000000000000000000000000006773020084
:1070300069730200000000006B7302006D730200B0
:10704000E1CD02006F73020081DB02006F7302006A
:107050006F7302006F73020079DA02006F7302002F
:107060006F7302006F7302006F7302006F73020090
:107070006F7302006F7302006F7302006F73020080
:107080006F73020029A402006F7302006F73020085
:107090006F7302006F730200554903006F730200A3
:1070A0006F7302006F7302006F7302006F73020050
:1070B0006F7302006F730200000000000000000008
:1070C0006F7302006F7302006F7302006F73020030
:1070D0006F7302006F7302006F7302006F73020020
:1070E0006F7302006F7302006F73020000000000F4
:1070F000000000006F730200000000006F730200C8
:10710000000000000000000000000000000000007F
:10711000000000000000000000000000000000006F
:10712000000000000000000000000000000000005F
:10713000000000000000000000000000000000004F
:10714000000000000000000000000000000000003F
:10715000000000000000000000000000000000002F
:10716000000000000000000000000000000000001F
:10717000000000000000000000000000000000000F
:1071800000000000000000000000000000000000FF
:1071900000000000000000000000000000000000EF
:1071A00000000000000000000000000000000000DF
:1071B00000000000000000000000000000000000CF
:1071C00000000000000000000000000000000000BF
:1071D00000000000000000000000000000000000AF
:1071E000000000000000000000000000000000009F
:1071F000000000000000000000000000000000008F
:10720000354936480A1A02D0072291438D4634493F
:1072100034480A1A06D00722914381F309880222D2
:1072200082F3148830483149314A00F044F831483B
:107230003149324A00F03FF831483249324A00F0D1
:107240003AF832483249334A00F035F83248334987
:10725000334A00F030F833483349344A00F02BF811
:1072600033483449344A00F026F83448344900227F
:1072700000F02CF833483449002200F027F8334856
:107280003349091A082902DB002202604160314AB1
:1072900090471F481F49884205D00268043003B454
:1072A000904703BCF7E700208646EC46002000210B
:1072B000294A9047FEE7884207D0521A05D0037842
:1072C00001300B700131013AF9D17047884202D088
:1072D00002700130FAE770470000042000E003204C
:1072E00000000420000004205C7F0300A097002021
:1072F000289E0020D0730200D0730200AC58030017
:107300005C7F0300A0970020A0970020C45A0300D0
:10731000C45A0300C45A0300C45A0300C45A0300E9
:10732000C45A0300C45A0300C45A03005B7F03001D
:10733000E4850300289E0020289E0020289E00202F
:1073400068D5002068D5002068D5002068D50020C9
:1073500068F500209D73020071130300FEE7FEE74D
:10736000FEE7FEE7FEE7FEE7FEE7FEE7FEE7FEE7F5
:1073700000F002B8FFF7FCBF0F484FF00701884349
:1073800085460E4880470E48016841F4700101604F
:10739000BFF34F8FBFF36F8FFFF732BF09480A4922
:1073A0000A4A884207D0521A05D0037801300B7080
:1073B0000131013AF9D1704700000420E5BE020016
:1073C00088ED00E0C45A0300A0970020A097002099
:1073D00000B585B00190019B002B0AD0074B43F00C
:1073E00001030393019B9B010293039B029898471F
:1073F00000E000BF05B05DF804FB00BFD05A0300F9
:1074000000B583B00190019B002B0AD04FF47A7035
:10741000FFF7DEFF019B013B0193019B002BF5D1A0
:1074200000E000BF03B05DF804FB08B50AF026F9E0
:1074300000BF08BD00B589B0039002910192019B85
:10744000002B33D00023079303230693029A079B54
:107450001344019A194600200AF0C0F80590079AD3
:10746000059B13440793019A059BD31A0193059B2F
:10747000002B13D10F4B1B7883F00103DBB2002BE1
:1074800013D10120FFF7BCFF069B013B0693069B2F
:10749000002B03D1074B00221A7007E0054B012295
:1074A0001A70019B002BD1D100E000BF00BF09B0D2
:1074B0005DF804FB289E002000B585B00390029182
:1074C000054B00934023054A0299039800F012F8F7
:1074D00000BF05B05DF804FB357402002C9E00204F
:1074E00082B0019000BF02B0704782B0019000BF2F
:1074F00002B0704700B5A1B00590049103920293C9
:10750000049803F0C1FE039B1593029B169300237E
:10751000179300238DF8603000231993229B1A9350
:1075200000231F930FA91F9B0822049803F086FFD6
:1075300008231F93119B1293BDF84030ADF84C30D7
:10754000BDF84230ADF84E3000238DF851309DF833
:107550003C3003F00303DBB2012B26D10F9BC3F3B6
:1075600095231C939DF83C30C3F3C203DBB28DF826
:107570005030BDF83C30C3F38313DBB21B931B9B2D
:107580009A0009A91F9B049803F058FF1B9B9B00BE
:107590001F9A13441F9312AA09A915AB009313460F
:1075A0001B9A1C9800F0A0FF2FE09DF83C3003F0E0
:1075B0000303DBB2022B28D1BDF83E30C3F389139D
:1075C0009BB21E939DF83C30C3F3C203DBB28DF82F
:1075D00050301E9B082B28BF08231D9307A91F9B13
:1075E0001D9A049803F02AFF1F9A1D9B13441F93B2
:1075F0001E9A1D9BD31A1E9315AB12AA07A81D999C
:1076000001F014F81E9B002BE3D1049803F04BFE0D
:1076100000BF21B05DF804FB82B00190019BDB68E4
:1076200001225A7100BF02B07047000000B583B05C
:107630004FF0FF330193FFF7F8FE0421084800F0F4
:107640006FFE0190019B002B03DA0649412008F0F0
:10765000B5FD0348FFF7E0FF00BF03B05DF804FB92
:10766000B45A0300E85A030000B583B001900091BA
:10767000019B1B681B6800990198984700BF03B0E5
:107680005DF804FB00B583B00190019B1B685B684B
:107690000198984700BF03B05DF804FB00B583B0C4
:1076A0000190019B1B689B680198984700BF03B03D
:1076B0005DF804FB82B001900B468DF80330019B0E
:1076C000DB689DF803201A7100BF02B0704782B0DA
:1076D0000190019BDB681B79184602B0704782B0AD
:1076E0000190019BDB6801225A7100BF02B0704714
:1076F00082B00190019BDB685B79184602B070474D
:1077000000B585B0019000910C4B00221A700C4816
:1077100003F01EFD0390039B002B01D0039B08E0A8
:10772000084804F025F9084A084BD31ADB080293ED
:107730000023184605B05DF804FB00BFD49F00206D
:1077400050590300605B030050590300B858030010
:10775000024A034BD31ADB081846704750590300FE
:10776000B858030000B587B001900B468DF8033080
:107770009DF80330002B1FD0FFF7EAFF0490002391
:10778000059313E0059B9B000E4A13440393039B50
:107790001B881A46019B1B689A4204D1019B059ADB
:1077A0001A60002309E0059B01330593059A049BA9
:1077B0009A42E7D3052300E00023184607B05DF89E
:1077C00004FB00BFA097002000B585B001900B46D8
:1077D0008DF803309DF8032001AB11461846FFF7E2
:1077E000C1FF0346002B07D1019BDB00054A134470
:1077F0000393039B1B6800E00023184605B05DF867
:1078000004FB00BFB858030084B001900B468DF80C
:107810000330019BDB00174A134402939DF80330A9
:10782000013B032B1CD801A252F823F03D78020043
:10783000457802004D7802005778020002238DF847
:107840000F3011E004238DF80F300DE0029B1B79FF
:107850008DF80F3008E0029B5B798DF80F3003E064
:1078600000238DF80F3000BF9DF80F30184604B08C
:10787000704700BFB858030084B001900091002306
:107880008DF80F30019B1B7803F00403DBB2002B53
:1078900024D0019B1B78C3F30103DBB2012B02D080
:1078A000022B0CD017E0009B1B68019A1288C2F3D0
:1078B0008312D2B213449A1C009B1A600BE0009B07
:1078C0001B68019A5288C2F3891292B213449A1C1F
:1078D000009B1A6000BF01238DF80F309DF80F3018
:1078E000184604B07047000000B58BB00023ADF817
:1078F00026303E4802F037FF3D4802F034FF3D4B52
:107900009B6804933C4B1B680693049A069B1340A8
:1079100002339B00374A13440433089304AB1946DF
:107920000898FFF7A9FF0346002B09D0049A069B8D
:10793000134002339B002F4A134404330893EDE7AE
:1079400000BF0023079311E0049B5A1C0492069A7F
:107950001340079A920001A90A44264902339B006A
:107960000B445B681360079B01330793079B012B54
:10797000EAD99DF80430C3F30103DBB2012B10D028
:10798000022B1CD1BDF80A30ADF82630BDF8063008
:10799000C3F389139BB203339A08049B13440493E3
:1079A00013E0BDF80A30ADF82630BDF80430C3F35B
:1079B0008313DBB21A46049B1344049305E00F497A
:1079C0004FF4C27008F0FAFB00BF094802F0D7FE7E
:1079D0000590059B002B02D0049B064A9360BDF8DE
:1079E000263018460BB05DF804FB00BFECA3002066
:1079F000E8A30020D49F0020A8970020705B03001C
:107A000000B585B00021074802F01EFE0390039BDD
:107A10000293029B83F310030193019B184605B068
:107A20005DF804FBF0A3002000B589B0039002913B
:107A300001920093039B1B0C0793FFF7E1FF069055
:107A4000FFF786FE0246079B934204D3214940F28A
:107A5000A91008F0B3FB069B1904009B5A1C0A9B53
:107A60001340079A0A431C4902339B000B445A6097
:107A7000009A0A9B134002339B00174A13440433B5
:107A80000593039B03F00703D9B2059A137861F3BA
:107A9000C5031370019B03F00F03D9B2059A138835
:107AA00061F389131380029BC3F31501059A1368D0
:107AB00061F39F231360059A1378012161F3010399
:107AC0001370059A13786FF38203137000BF09B027
:107AD0005DF804FB705B0300D49F002000B58DB0FF
:107AE0000390029113468DF80730039B02330A93EB
:107AF00001238DF8273000238DF81B300DF11B0377
:107B0000184602F07BF8404B5A68029B1A603F4BC4
:107B10001A683D4B99683C4B5B68CB1A13440133A0
:107B20000B9314E001213A4802F0EDFDFFF7DCFE73
:107B300007900799364802F0E6FD344B1A68324B3D
:107B40009968314B5B68CB1A134401330B930A9A43
:107B50000B9B9A42E6D89DF82730002B48D0002393
:107B600005939DF80730002B17D09DF814300122A3
:107B700062F301038DF814309DF8143043F00403D0
:107B80008DF81430039B03F00F03DAB2BDF8143004
:107B900062F38913ADF8143016E09DF81430022218
:107BA00062F301038DF814309DF8143043F00403A0
:107BB0008DF81430039BC3F309039AB2BDF8163055
:107BC00062F38F13ADF816300F4B5A680F4B1B68DA
:107BD000134002339B000C4A134404330893059A64
:107BE000089B1A60084B5A680A9B1344064A536064
:107BF0009DF81B30184602F017F89DF827301846FC
:107C00000DB05DF804FB00BFD49F0020A8970020B2
:107C1000F0A3002000B58BB005900491039202936D
:107C20001F4B1B68079306AB012219460298FFF70A
:107C300055FF0346002B24D0069B023309930023F3
:107C4000089311E0089B9B00039A1A44099B591C56
:107C5000099107990B401268124902339B000B44AB
:107C60005A60089B01330893089A029B9A42E9D311
:107C7000069A079B00931346029A04990598FFF70A
:107C8000D3FE084B1B78002B05D000BF00F03EF957
:107C90000346002BFAD100BF0BB05DF804FB00BF18
:107CA000A8970020D49F002000B583B001900091D8
:107CB0000023002200990198FFF7ACFF00BF03B03A
:107CC0005DF804FB00B587B0039002910192019B1F
:107CD000059305AA012302990398FFF79BFF00BFB4
:107CE00007B05DF804FB00B587B0039002910192E4
:107CF0000093019B0493009B059304AA022302991D
:107D00000398FFF787FF00BF07B05DF804FB00B5DD
:107D100089B00390029101920093019B0593009B0F
:107D200006930A9B079305AA032302990398FFF77A
:107D300071FF00BF09B05DF804FB00B58BB0039084
:107D4000029101920093019B0593009B06930C9B6B
:107D500007930D9B08930E9B099305AA052302998F
:107D60000398FFF757FF00BF0BB05DF804FB00B5A9
:107D70008BB00390029101920093019B0493009BAE
:107D800005930C9B06930D9B07930E9B08930F9BEB
:107D9000099304AA062302990398FFF73BFF00BF4B
:107DA0000BB05DF804FB000000B58DB003900291AC
:107DB0001346ADF806304B4B1B680B93BDF80630ED
:107DC00003339B0805A900221846FFF787FE0346E8
:107DD000002B78D0059B0A93059B02330593414BFA
:107DE0001A6805990B9B0B40D31A01339B0009932A
:107DF000BDF80630099A9A420ED3059A0B9B1340A0
:107E000002339B00384A13440433BDF8062002991C
:107E100018460DF07EF917E0059A0B9B13400233CC
:107E20009B00314A13440433099A029918460DF015
:107E300070F9029A099BD118BDF80620099BD31A44
:107E40001A462A480DF065F9039B1B0C0893FFF7AF
:107E5000D7FD0790079B19040A9B5A1C0B9B1340E4
:107E6000089A0A43204902339B000B445A600A9A3D
:107E70000B9B134002339B001B4A134404330693AD
:107E8000039B03F00703D9B2069A137861F3C50385
:107E90001370069A13886FF38F131380BDF80630A2
:107EA000C3F3090399B2069A538861F38F13538081
:107EB000069A1378022161F301031370069A13786E
:107EC0006FF382031370084B1B78002B05D000BFA3
:107ED00000F01CF80346002BFAD100BF0DB05DF88E
:107EE00004FB00BFA8970020D49F0020E09F002043
:107EF000054B9A68044B5B689A420CBF0123002330
:107F0000DBB21846704700BFD49F002000B599B07F
:107F1000FFF7EEFF0346002B01D00023C0E19B4B8F
:107F20000022C3F81824BFF34F8F00BF974B9B6804
:107F30000493974B1B681093049A109B13400233D1
:107F40009B00924A13440433119300231793002398
:107F5000169300230F9304AB19461198FFF78CFC7E
:107F60000346002B19D0894BD3F81834002B14D1B9
:107F7000864B5A68049B9A4205D8844B5B68834AB7
:107F8000936000238CE1049A109B134002339B0002
:107F90007E4A134404331193DDE70023159311E067
:107FA000049B5A1C0492109A1340159A920001A93E
:107FB0000A44764902339B000B445B681360159BAF
:107FC00001331593159B012BEAD99DF8043003F07A
:107FD0000303DBB2022B40F09C80BDF80630C3F3F4
:107FE00089139BB20D93BDF80630C3F389139BB27E
:107FF000502B28BF50239BB20C930C9BC3F3090357
:108000009AB2BDF8063062F38F13ADF806300C9BC0
:1080100008330B939DF80430C3F3C203DBB20F9314
:108020000B995C4803F09FF81790179B002B00F00A
:10803000D380179803F028F901A9169B08221798F6
:1080400003F0DEF9169B08331693049BDA43109B6A
:10805000134001339B000A930C9A0A9B9A4242D91F
:108060000A9B002B08D0049A109B134002339B00FC
:10807000464A1344043300E0474B08930A9B002B05
:1080800002D00A9BDBB201E00C9BDBB28DF81F3003
:108090000A9B002B01D0404B00E0002306930A9B73
:1080A000002B06D00C9BDAB20A9BDBB2D31ADBB2F0
:1080B00000E000238DF817309DF81F20169B0899CB
:1080C000179803F09DF99DF81F30169A13441693E4
:1080D000069B002B16D09DF81720169B0699179823
:1080E00003F08EF90EE0049A109B134002339B00BC
:1080F000264A134404330993169B0C9A099917983E
:1081000003F07EF90D9B03339A08049B13440493F8
:1081100062E09DF8043003F00303DBB2012B5BD176
:10812000BDF80430C3F38313DBB2062B28BF06234C
:10813000DAB2BDF8043062F38913ADF80430BDF84B
:108140000430C3F38313DBB202330E939DF8043083
:10815000C3F3C203DBB20F930E9B9B0019460D487D
:1081600003F001F81790179B002B35D0179803F0F8
:108170008BF801A9169B0822179803F041F9169B6A
:1081800008331693002315931DE000BFD49F0020F1
:10819000A897002050590300E09F0020049B5A1C20
:1081A0000492109A134002339B003F4A1344191D56
:1081B000169B0422179803F023F9169B0433169399
:1081C000159B01331593BDF80430C3F38313DBB261
:1081D0001A46159B9342E1D3179B002B40D0324B9C
:1081E000D3F810341493304BD3F81834002B1BD031
:1081F000179803F058F84DE000238DF84F3014988D
:10820000FFF776FA0346002B02D001238DF84F309A
:108210009DF84F30002B03D017991498FFF724FADC
:10822000149BDB681B681493149B002BE4D11798F4
:1082300003F039F800238DF803300DF103031846DD
:1082400001F0DCFC184BD3F81834002B02D1049B4E
:10825000154A93609DF80330184601F0E5FC19E0DB
:10826000114BD3F81034129306E01298FFF716FA68
:10827000129BDB681B681293129B002BF5D10B4AF3
:108280000B4BD31ADB081B0443F0020309491846C1
:10829000FFF70AFDFFF72CFE034683F00103DBB274
:1082A000184619B05DF804FBD49F0020E058030085
:1082B000B8580300E05B030000B585B000230393CA
:1082C00023E0164BD3F81034029301238DF80730C6
:1082D0000FE00298FFF7FBF903461A46039B93420F
:1082E00003D100238DF8073006E0029BDB681B6892
:1082F0000293029B002BECD19DF80730002B01D09C
:10830000039B07E0039B01330393039B092BD8DDF9
:108310004FF0FF33184605B05DF804FBD49F0020F2
:1083200000B585B001900B468DF80330FFF7C4FF10
:108330000390039BB3F1FF3F01D1039B22E0039B1A
:10834000DBB219460198FFF7B5F9104BD3F810349A
:10835000002B08D10D4A019BC2F81034019BDB6849
:1083600000221A600DE0094BD3F81034DA68019B43
:10837000DB6812681A60054BD3F81034DB68019A89
:108380001A60039B184605B05DF804FBD49F0020DB
:1083900000B583B00C4BD3F8103401930A4B012283
:1083A0001A7009E00198FFF79AF90198FFF76AF946
:1083B000019BDB681B680193019B002BF2D100BF7E
:1083C00000BF03B05DF804FBD49F002082B0019091
:1083D000009100BF02B0704710B584B003900291C5
:1083E000039BDB88002B0AD0039BDB881A461F4BBC
:1083F000009313461E4A1F49029802F0FDFA039BA0
:108400001B7A052B2ED0039B5B7A002B12D0039B8B
:108410009B881A46039B1B7A19461046FFF7F4F90E
:1084200003461A46144B53F822301A461349029851
:1084300002F0E2FA039B1B6819460298FFF7C6FF99
:10844000039B1B7A1A460E4B53F82240039B9B88D2
:1084500000211846FFF7B8F9034622460949029859
:1084600002F0CAFA00BF04B010BD00BF145C0300E4
:10847000245C03005C5C0300C0970020745C030074
:10848000AC970020785C030000B585B003900291A2
:1084900013468DF80730039B1B7A052B0FD0039BE7
:1084A0005B7A002B06D00D4B1B681A460C490298CC
:1084B00002F0A2FA0B49029802F09EFA07E09DF83A
:1084C0000730002B03D00749029802F095FA029872
:1084D00002F070FA00BF05B05DF804FBC097002001
:1084E000745C0300845C030030B58BB00790069188
:1084F000059204930E9B1B7B8DF827300E9B002268
:108500001A730E990498FFF767FF059B062B7FD817
:1085100001A252F823F000BF358502003F8502001A
:108520004F8502006385020081850200A985020053
:10853000D985020007990E9802F05EFA69E0069B61
:108540001B681A4607990E9802F056FA61E0069BDE
:108550001A68069B04331B6807990E9802F04CFAC0
:1085600057E0069B1A68069B04331968069B08337C
:108570001B6800930B4607990E9802F03DFA48E0FD
:10858000069B1968069B04331868069B08331B6812
:10859000069A0C3212680192009303460A46079924
:1085A0000E9802F029FA34E0069B1868069B043303
:1085B0001C68069B08331B68069A0C3212680699E1
:1085C00010310968029101920093234602460799EF
:1085D0000E9802F011FA1CE0069B1C68069B0433FF
:1085E0001D68069B08331B68069A0C3212680699B0
:1085F00010310968069814300068039002910192C6
:1086000000932B46224607990E9802F0F5F900E0F8
:1086100000BF00220E990498FFF736FF0E9B9DF8CD
:1086200027201A7300BF0BB030BD00BF00B587B064
:108630000390029101920093029B082B60D8009B4B
:108640001B7B8DF81330009B00221A730099019850
:10865000FFF7C2FE0023059314E0059A029B9A429D
:1086600009D2039A059B13441B781A4626490098A1
:1086700002F0C2F903E02549009802F0BDF9059B1C
:1086800001330593059B072BE7D92149009802F098
:10869000B3F90023059326E0059A029B9A421BD268
:1086A000039A059B13441B788DF812309DF8123005
:1086B0007E2B0AD89DF8123018460CF09FFC03461A
:1086C000002B02D09DF8123000E02E231A461149EB
:1086D000009802F091F903E00F49009802F08CF93C
:1086E000059B01330593059B072BD5D901220099E2
:1086F0000198FFF7C9FE009B9DF813201A7300E054
:1087000000BF07B05DF804FB885C0300905C0300C9
:10871000945C0300985C03009C5C030084B00346F7
:108720008DF807309DF807305B08DBB21A460D4B19
:108730009B5C8DF80F309DF8073003F00103002B90
:1087400004D09DF80F301B09DBB204E09DF80F3018
:1087500003F00F03DBB28DF80E309DF80E30184693
:1087600004B0704728A4002084B003460A468DF860
:10877000073013468DF806309DF8073003F00103EB
:10878000002B01D00F2300E0F0238DF80F309DF86F
:10879000073003F00103002B04D09DF806301B01C5
:1087A000DBB201E09DF806308DF80E309DF8073001
:1087B0005B08DBB21A46114B9A5C9DF807305B08E8
:1087C000DBB219469DF80F301340DAB20B4B5A5406
:1087D0009DF807305B08DBB21A46084B9A5C9DF89F
:1087E00007305B08DBB219469DF80E301343DAB24E
:1087F000024B5A5400BF04B0704700BF28A40020A9
:1088000000B585B003468DF807300023039310E0D0
:108810000F4B1A68039BDB0013440293029B1B78E7
:108820009DF807209A4201D1029B0DE0039B013382
:108830000393084B1B781A46039B9342E8DB0649D7
:10884000882007F0BBFC0023184605B05DF804FB48
:10885000F4A30020F8A30020AC5C030000B585B0B1
:1088600003460A468DF8073013468DF806309DF80A
:1088700007301846FFF7C4FF0390039B002B0BD073
:10888000039B5B68002B07D0039B5B689DF8061079
:108890009DF807201046984700BF05B05DF804FB1F
:1088A0002DE9F04F87B003460A468DF80F30134686
:1088B0008DF80E309DF80F301846FFF72FFF034656
:1088C000042B00F2C28001A252F823F0E1880200DA
:1088D0005589020071890200A1890200B78902004E
:1088E0009DF80E30002B00F0AD809DF80F30012177
:1088F0001846FFF739FF00238DF817300DF11703E5
:10890000184601F07BF99DF80F104FF001024FF06F
:108910000003A1F12004C1F1200003FA01F702FADB
:1089200004F4274322FA00F0074302FA01F6494B08
:10893000D3E9002346EA020100913B430193454BF2
:10894000DDE90012C3E900129DF81730184601F066
:108950006BF977E09DF80E30002B01D0022200E089
:1089600000229DF80F3011461846FFF7FDFE6CE01F
:108970009DF80E30002B0CD09DF80F3003211846C7
:10898000FFF7F2FE9DF80F3001211846FFF766FF52
:108990005BE09DF80F3001211846FFF7E5FE54E03B
:1089A0009DF80E30002B4FD19DF80F300421184652
:1089B000FFF7DAFE48E09DF80E30002B06D09DF858
:1089C0000F3003211846FFF7CFFE3EE09DF80F3031
:1089D00000211846FFF7C8FE9DF80F300021184609
:1089E000FFF73CFF00238DF816300DF116031846F3
:1089F00001F004F99DF80F104FF001024FF0000351
:108A0000A1F12006C1F1200003FA01F502FA06F6F1
:108A1000354322FA00F0054302FA01F46FEA040834
:108A20006FEA05090B4BD3E9002308EA020A09EAB9
:108A3000030B084BC3E900AB9DF81630184601F054
:108A4000F3F802E000BF00E000BF00BF07B0BDE8E0
:108A5000F08F00BF20A4002000B583B00648074B6C
:108A60001B685B080022194600F004FE019000BF5D
:108A700003B05DF804FB00BF00A40020FCA30020AD
:108A800000B587B001900023059328E01C4B1A68BD
:108A9000059BDB0013440493049B1B78184604F0E9
:108AA0003BFF03468DF80F30049B5B78012B0CBF16
:108AB00001230023DBB21A469DF80F309A420CBF07
:108AC000012300238DF80E30049B1B789DF80E20A7
:108AD00011461846FFF7E4FE059B01330593094B49
:108AE0001B781A46059B9342D0DB074BD3E9002342
:108AF000134301D0FFF7B0FF00BF07B05DF804FBE0
:108B0000F4A30020F8A3002020A4002000B585B025
:108B100001900B468DF80330019BDBB21846FFF73E
:108B20006FFE0390039B1B78184604F0F5FE034686
:108B30008DF80B30039B5B78012B0CBF01230023C6
:108B4000DBB21A469DF80B309A420CBF012300237A
:108B50008DF80A309DF80A30002B06D0054BD3E97A
:108B60000023134301D1FFF777FF00BF05B05DF885
:108B700004FB00BF20A4002000B58BB003900B467F
:108B800001928DF80B30019B092B01D8072367E078
:108B900004F0B6FD034683F00103DBB2002B09D0DD
:108BA00004F04AFD0990099B0893089B002B01D013
:108BB000089B55E02C4A039B13602C4A9DF80B3010
:108BC00013702B4A019B13602022002129480CF0CE
:108BD000C9FA29494FF000024FF00003C1E9002310
:108BE00031E09DF80B30DB00039A13440793032315
:108BF0008DF8143000238DF815309DF816306FF382
:108C000000038DF816309DF816306FF341038DF890
:108C100016309DF816306FF382038DF81630079BDF
:108C20009B788DF81530079B1B78184605AB134AC7
:108C3000194604F071FD0990099B0693069B002BD1
:108C400001D0069B0CE09DF80B305A1E8DF80B20CE
:108C5000002BC6D10A4A00210A4800F0D7FC03467F
:108C600018460BB05DF804FBF4A30020F8A3002025
:108C7000FCA3002028A4002020A400200D8B0200CB
:108C8000818A0200145D030000B583B0114B1B689C
:108C9000002B04D1104940F2351007F08FFA002361
:108CA00001930CE00B4B1A68019BDB0013441B780B
:108CB0000121184604F0ACFD019B01330193074BE1
:108CC0001B781A46019B9342ECD30023184603B04D
:108CD0005DF804FBF4A30020AC5C0300F8A30020C3
:108CE00086B003900291019201238DF817309DF810
:108CF0001730204A039B13601E4A029B53601D4A93
:108D0000019B9360039B44F20102934212D0039BA8
:108D100044F20202934220D1019B164AD360154BC4
:108D2000DB681B68134A9361124BDB685B68114A6E
:108D3000D36112E0019B0F4A13610E4B1B699B68C4
:108D40000C4A53610B4B1B691B680A4A9361094B20
:108D50001B695B68074AD36100BF72B600BF00BFE2
:108D60009DF81730DBB2002BFAD162B600BF00BF0E
:108D700006B0704748A4002000B583B0029000916F
:108D8000019244F2010071466A4600F003F803B014
:108D900000BD00BF30B58BB007900691059272B64A
:108DA00000BFFFF7F5FA00BFFFF7B0F80346002B4E
:108DB000FAD1079B44F2020293422FD0079B44F260
:108DC0000202934269D8079B44F20102934237D0D2
:108DD000079B44F2010293425FD8079B012B05D009
:108DE000079B41F2010293420CD056E0394A3A4BBC
:108DF000D31ADB081B0443F0010338491846FEF779
:108E000053FF57E0334A344BD31ADB081B0443F0BB
:108E1000010333491846FEF747FF4BE0059B0993D2
:108E20002C4A2D4BD31ADB081B0443F00100099B8D
:108E30005B681A46099B1B682A49FEF754FF39E014
:108E4000059B0893234A244BD31ADB081B0443F0E9
:108E50000104089B9D68089B9B68184602F0A8FEC9
:108E600003461846089B5B681946089B1B68069AD0
:108E700002920193009103462A461B492046FEF7C1
:108E80005CFF144A144BD31ADB081B0443F00103A4
:108E900016491846FEF708FF0CE00E4A0E4BD31A8F
:108EA000DB081B0443F00103069A11491846FEF73C
:108EB00009FF00BF0F4B1B6803F00103002B00D01C
:108EC00000BE059A06990798FFF70AFF00BF0BB08E
:108ED00030BD00BFE0580300B8580300185D030020
:108EE000385D03005C5D0300785D0300A05D030056
:108EF000B45D0300F0ED00E084B00190019B9B683D
:108F00000393019BDA68039BD31A184604B0704799
:108F100082B001900B468DF80330019B1A68019BCB
:108F2000DB68019989880B4013449DF803201A706F
:108F3000019BDB685A1C019BDA6000BF02B07047DE
:108F400084B003900B460192ADF80A30039B1A6877
:108F5000039B9968BDF80A300B44039989880B403C
:108F600013441A78019B1A7000BF04B0704700B513
:108F700083B001900091009A00210198FFF7E0FF73
:108F8000019B9B685A1C019B9A6000BF03B05DF86F
:108F900004FB84B0039002911346ADF80630029BA7
:108FA000002B01D10E231DE0BDF80630002B07D0A9
:108FB000BDF806305A1EBDF806301340002B01D014
:108FC00009230FE0039B029A1A60BDF80630013BAB
:108FD0009AB2039B9A80039B00229A60039B002213
:108FE000DA600023184604B0704700B583B00190E2
:108FF0000B468DF803300198FFF77EFF0246019B78
:109000009B889A4207D89DF8033019460198FFF7CC
:109010007FFF002300E00423184603B05DF804FB43
:1090200000B583B0019000910198FFF765FF0346FA
:10903000002B05D000990198FFF799FF002300E06D
:109040000523184603B05DF804FB00002DE9F0434A
:1090500083B0144801F0CDF9034600221C461546A2
:10906000114BD3E9002314EB020845EB0309CDE9CA
:1090700000890E4BD3E90023DDE90001904271EB3A
:10908000030307D2DDE9002312F1807643F10007E4
:10909000CDE90067DDE900231046194603B0BDE8BD
:1090A000F08300BFE497002070A4002078A4002083
:1090B00088B001900091019B0793009B0693079B4A
:1090C000D3E90223CDE90423069BD3E90223CDE9AA
:1090D0000223DDE90423DDE90201904271EB030381
:1090E0002CBF01230023DBB2184608B070470000F4
:1090F000F0B585B00190019B5B69002B03D12B4932
:10910000A22007F05BF800238DF80F30284B1B7866
:10911000002B45D0019B002B42D0019B1B7FDBB273
:10912000002B3DD0FFF792FF019BD3E90223904231
:1091300071EB03032CD3019B1B69002B02D1019B14
:1091400000221A77019B5B69019A92691046984741
:10915000019B1B69002B23D0019B1B7FDBB2002BE3
:109160001ED0019BD3E902230199096900200C4616
:109170000546161943EB0507019BC3E90267019BEE
:1091800019460C4802F06EFC01238DF80F3007E001
:10919000019B1946074802F065FC01238DF80F304A
:1091A0009DF80F30184605B0F0BD00BFD85D030034
:1091B0006CA40020445E0300F0B589B001900091DA
:1091C0000D230793009B00221A70019BD3E90245EF
:1091D000FFF73CFF02460B46A61A65EB0307CDE9F5
:1091E0000467DDE90423012A73F100031BDB049B00
:1091F000B3F5350F05D300F09DFA0246154B134425
:1092000003E0019BD3E90223134603934FF4960333
:10921000039A0021104800F0DFFF0790079B002B06
:1092200005D1012313E000210B4801F0ADF8079BA5
:109230000D2B07D10198FFF75BFF03461A46009BF1
:109240001A7003E00549F52006F0B8FF0023184620
:1092500009B0F0BDFFFFB400E4970020D85D030023
:1092600000B583B0044802F037FC0190019B18461A
:1092700003B05DF804FB00BF445E030000B583B09B
:10928000044802F04BFC0190019B184603B05DF8C6
:1092900004FB00BF445E030000B583B0FFF7E0FFAE
:1092A0000190019B002B02D0019B00221A77019BA9
:1092B000002BF3D100BF00BF03B05DF804FB00003A
:1092C000054BD3E9002312F1807043F10001024BFA
:1092D000C3E9000100BF704770A4002010B582B040
:1092E0000190124B1B68002B1DD0019801F081F8F2
:1092F00004460021019801F06DF803461946204606
:1093000000F00CFA0346B3F5960F04D308494FF466
:10931000957006F053FF054B1B681846FFF7E8FEF3
:10932000024B00221A6000BF02B010BD68A40020EA
:10933000D85D030000B583B00190FFF787FE0246B9
:109340000B460349C1E9002300BF03B05DF804FBED
:1093500078A4002000B585B00190FFF78FFF03903F
:1093600000238DF80B30039B002B41D0244B1B684E
:10937000002B03D101238DF80B3019E0039BD3E9B7
:1093800002011F4B1B68D3E90223904271EB0303D8
:109390000ED201238DF80B30194B1B681B7FDBB2FB
:1093A000002B05D0164B1B681946164802F05AFBD5
:1093B0009DF80B30002B1DD0FFF752FF03900DF1ED
:1093C0000A0319460398FFF7F7FE0346002B0BD05C
:1093D0000B4A039B13609DF80A3083F00103DBB254
:1093E000002BBAD000BF06E0054B00221A60B4E79C
:1093F00000BF00E000BF00BF05B05DF804FB00BF88
:1094000068A40020445E030000B587B001902C4A98
:1094100003AB1946104601F0EAF8059048E0059BB9
:109420001B78022B2ED0022B32DC002B02D0012B1A
:1094300014D02DE0059B5B681B7FDBB283F001033A
:10944000DBB2002B26D0059B5B6801221A77059BB7
:109450005B6819461B4802F005FB1BE0059B5A6838
:10946000194B1B689A4203D1174B00221A6012E075
:10947000059B5B681946134802F064FB03468DF8B0
:10948000133008E0FFF708FF104B01221A7002E0CA
:1094900000BF00E000BF0A4A03AB1946104601F0C6
:1094A000BFF8074A03AB1946104601F0A0F8059033
:1094B000059B002BB3D100BF00BF07B05DF804FBD4
:1094C000D8A40020445E030068A400206CA40020FF
:1094D00000B583B00190019800F049FF0346002BCE
:1094E00001D0FFF7EDFE0021019800F05EFF03467A
:1094F000002B02D00198FFF7F1FE0121019800F046
:1095000054FF0346002B02D00198FFF713FF019888
:10951000FFF77AFF0198FFF71DFF00BF03B05DF86A
:1095200004FB000008B5024800F070FF00BF08BD52
:10953000E497002000B585B0034600918DF8073010
:10954000114A02AB1946104601F024F80390039B20
:10955000002B13D0039B9DF807201A70039B009AE1
:109560005A60094A02AB1946104601F02CF803462E
:10957000002B01D0FFF7D6FF002300E0042318469C
:1095800005B05DF804FB00BFD8A4002000B583B08F
:10959000174B1B680093174808235822164900F000
:1095A000C6FF0190019B002B01D0019B1CE06B4684
:1095B000124A1946124800F0B3FC0190019B002B9F
:1095C00001D0019B10E001210D4800F0BFFE0123F6
:1095D0000C4A01210A4800F037FD094800F01EFD41
:1095E000094B01221A70019B184603B05DF804FB79
:1095F000405E0300D8A4002080A40020D194020083
:10960000E4970020FFFF7F006CA4002000B587B026
:1096100003900B4601928DF80B30039B002B04D175
:10962000134940F22E2006F0C9FD019B002B04D106
:109630000F4940F22F2006F0C1FD019B002B01D104
:10964000072310E0039B1B680593059B019A5A6151
:109650009DF80B30012B0CBF01230023DBB21A460F
:10966000059B1A610023184607B05DF804FB00BF94
:10967000D85D0300F0B587B0039002910192039B7F
:10968000002B04D1164940F23E2006F097FD039BC3
:109690000593059B1B7FDBB2002B01D000231CE050
:1096A000059B019A9A61FFF7D1FC02460B4602998D
:1096B00000200C460546161943EB0507059BC3E938
:1096C0000267059B1B69002B02D0059B029A1A6159
:1096D00005990020FFF72EFF0346184607B0F0BD9E
:1096E000D85D030000B585B00190019B002B04D12B
:1096F00009494FF4157006F061FD019B0393039B2C
:1097000000221A7703990120FFF714FF0346184639
:1097100005B05DF804FB00BFD85D030082B0019086
:109720000091019A009BD31A23F07F43184602B0A0
:109730007047000008B5034800F05BFE034618467A
:1097400008BD00BFE497002000B587B003900291E8
:1097500013468DF8073000230593039B1B781A46A8
:10976000114B9B5C002B09D0039B04339DF8072011
:109770000299184605F02CFC05900FE0039B1B781E
:109780001A46094B9B5C002B08D1039B0C339DF8B8
:1097900007200299184604F0AFFD0590059B184676
:1097A00007B05DF804FB00BF64A5002000B585B0DC
:1097B000019000238DF80F30019B1B781A46114B46
:1097C0009B5C002B08D0019B0433184605F0C0FCBD
:1097D00003468DF80F300EE0019B1B781A46094BAB
:1097E0009B5C002B07D1019B0C33184604F00CFE48
:1097F00003468DF80F309DF80F30184605B05DF820
:1098000004FB00BF64A5002000B587B0039002915F
:1098100013468DF8073000230593039B1B781A46E7
:10982000114B9B5C002B09D0039B04339DF8072050
:109830000299184605F0A4FC05900FE0039B1B78E5
:109840001A46094B9B5C002B08D1039B0C339DF8F7
:1098500007200299184604F02FFE0590059B184634
:1098600007B05DF804FB00BF64A5002084B0019040
:10987000019B9B680393019BDA68039BD31A1846EC
:1098800004B0704700B587B001900091019B1B7830
:10989000022B45D0022B6ADC002B52D0012B66D163
:1098A000019B1B7A002B05D1012233493348FFF776
:1098B000ABFF5DE0019B5B681B7819463048FFF702
:1098C00094FB0590059B002B0AD001238DF80C30EA
:1098D000059B04932B4B1B6803AA104698470DE089
:1098E0002748FFF7C3FF0346002B07D000238DF85E
:1098F0000C30244B1B6803AA104698472048FFF7FA
:10990000B5FF03461E4A9288934205D801221A49A0
:109910001A48FFF779FF2BE01B4B01221A7027E052
:1099200002238DF80C30019BDB680493012212495D
:109930001248FFF769FF134B1B6803AA10469847AC
:1099400016E012491248FFF76BFB0346002B05D1C6
:1099500001220E490948FFF7F7FE09E003238DF8BD
:109960000C30084B1B6803AA1046984700E000BF64
:1099700000BF07B05DF804FBF4A40020EC970020C2
:10998000F8A40020ECA40020F5A40020F0A40020FE
:1099900008A5002030B591B00390029101928DF896
:1099A00003303C4A019B1360029B002B01D107232B
:1099B0006DE0029B1968029B5B689BB21A463648B1
:1099C000FFF7E7FA0F900F9B0E930E9B002B01D031
:1099D0000E9B5CE0029B9968029BDB689BB21A4677
:1099E0002E48FFF7D6FA0F900F9B0D930D9B002B7F
:1099F00001D00D9B4BE02A4B04AC1D460FCD0FC48C
:109A000095E80F0084E80F00039B5B690A93039BB2
:109A10001B7C002B14BF01230023DBB28DF8243004
:109A20009DF803308DF82C30039B5B7C002B01D01C
:109A30000E2300E000238DF82530039BDB6806939E
:109A4000039B9B680793039B1B680593039B5B68C1
:109A5000049304AB134A1946134802F0CFFF0F904A
:109A60000F9B0C930C9B002B01D00C9B0FE00F4B1A
:109A700000221A70039B1B68B3F1FF3F06D001223E
:109A80000B490948FFF7C0FE034600E000231846D3
:109A900011B030BDECA40020F8A4002008A50020DF
:109AA000505E030085980200EC970020F5A400208A
:109AB000F4A4002000B585B003468DF807309DF86A
:109AC000073019461048FFF790FA0390039B002BCC
:109AD00015D10E48FFF76AFE034683F00103DBB29F
:109AE000002B0CD00A490848FFF79AFA0346002BCE
:109AF00005D1012206490548FFF726FE0390039B86
:109B0000184605B05DF804FB08A50020EC9700207E
:109B1000F0A4002082B0EFF310830093009B019328
:109B200072B600BF019B184602B0704762B600BF14
:109B300000BF704700B585B00190FFF7EBFF0390C1
:109B4000164B9B68002B1BD1144B01229A60144BBF
:109B5000D3F88020134B1340104A1360104B114A66
:109B6000C3F880200E4BD3F884300C4A53600C4B62
:109B70004FF0FF32C3F88420019B00221A7002E0EC
:109B8000019B01221A70039B002B01D1FFF7CEFF2E
:109B90000023184605B05DF804FB00BF18A500209F
:109BA00000E100E0FC06FFBD00B585B003468DF87E
:109BB0000730104B9B68002B16D09DF80730002B08
:109BC00012D1FFF7A7FF03900B4A0A4B1B681360E3
:109BD000094A084B5B685360064B00229A60039B5E
:109BE000002B01D1FFF7A2FF0023184605B05DF856
:109BF00004FB00BF18A5002000E100E000B583B021
:109C0000019000F02BF80346012B03D005494320B7
:109C100006F0D4FA0198FFF78DFF00BF03B05DF89E
:109C200004FB00BFDC5E030000B583B003468DF883
:109C3000073000F013F80346012B03D006495120EA
:109C400006F0BCFA9DF807301846FFF7ADFF00BFDD
:109C500003B05DF804FB00BFDC5E030084B0EFF3EB
:109C600005830193019BC3F308030393039B002B1C
:109C70000DD1EFF314830093009B0293029B03F03A
:109C80000103002B0CBF01230023DBB200E0012302
:109C9000184604B07047000082B003468DF80730C4
:109CA0009DF90730002B0CDB9DF8073003F01F02F5
:109CB00005499DF907305B09012000FA02F241F8DD
:109CC000232000BF02B0704700E100E082B00346ED
:109CD0008DF807309DF90730002B0DDB9DF807301C
:109CE00003F01F0206499DF907305B09012000FAC5
:109CF00002F2403341F8232000BF02B0704700BF9A
:109D000000E100E082B0034600918DF807309DF934
:109D10000730002B0ADB009BDAB20C499DF90730B3
:109D20005201D2B20B4483F800230BE0009BDAB25D
:109D300007499DF8073003F00F03043B5201D2B2EC
:109D40000B441A7600BF02B0704700BF00E100E08C
:109D500000ED00E000B583B003460A468DF80730F9
:109D600013468DF806309DF80630012B03D99DF877
:109D70000630032B0BD99DF80630042B03D99DF830
:109D80000630072B03D908496B2006F017FA9DF817
:109D900006209DF9073011461846FFF7B3FF00BFB4
:109DA00003B05DF804FB00BF4C5F030000B583B057
:109DB00003468DF807309DF907301846FFF76CFF12
:109DC00000BF03B05DF804FB00B585B00190019BB6
:109DD000002B0AD0074B43F001030393019B9B0127
:109DE0000293039B0298984700E000BF05B05DF81E
:109DF00004FB00BF6060030084B0039002910192F5
:109E0000039B029A02F5A872019943F8221000BF41
:109E100004B0704782B001900091019B009A02F556
:109E2000A87253F82230184602B0704782B00190F1
:109E30000091019B009AC3F8042300BF02B0704751
:109E400082B001900091019B009AC3F8082300BFE3
:109E500002B0704782B001900B46ADF80230BDF8F9
:109E60000230019A13441B68184602B0704784B050
:109E700001900B46ADF80230BDF80230019A134450
:109E800000221A60BDF80230019A13441B68039344
:109E9000039B00BF04B0704782B00190019BD3F8D0
:109EA0000435184602B0704700B583B001900091A8
:109EB000009BB3F5805F04D306494FF4BE7006F0F3
:109EC0007DF9019B009AC3F8082500BF03B05DF837
:109ED00004FB00BF7C5F030082B001900B468DF84D
:109EE00003309DF80320019B13441A46012313609D
:109EF00000BF02B0704782B001900091019B009AB0
:109F0000C3F8442300BF02B0704782B001900091B3
:109F1000019B009AC3F8482300BF02B070470000BD
:109F200000B587B0039002910192039B002B03D1EF
:109F30003349552006F042F9029B002B03D13049EA
:109F4000562006F03BF9019B002B03D12C495720EA
:109F500006F034F9039B5B7919462A4A019B42F8C3
:109F60002130039B5B79284ADB0013441B79002BCB
:109F70000ED008230593254A254BD31ADB081B0472
:109F800043F0020323491846FDF78EFE059B32E09D
:109F9000039B1A68029B1B8819461046FFF784FF33
:109FA000039B93F90420029B9B7819461046FFF708
:109FB000D1FE039B93F904301846FFF7F7FE039B8D
:109FC0005B79114ADB00134401221A71039B5B7910
:109FD00019460D4A039B42F83130002305930B4A82
:109FE0000B4BD31ADB081B0443F003030A49184642
:109FF000FDF75AFE059B184607B05DF804FB00BF4D
:10A00000AC5F030024A5002028A50020F058030021
:10A01000B8580300106003003460030000B583B03B
:10A020000190019B002B03D10649872006F0C6F85A
:10A03000019B1B6800211846FFF74EFF00BF03B0CD
:10A040005DF804FBAC5F030000B587B0039002919C
:10A0500001928DF80330039B002B03D121499620F8
:10A0600006F0ACF84FF48032029B02FA03F305933A
:10A07000029B50339BB29B00ADF81230019B23F042
:10A080007F430193039B1B6805991846FFF7D8FE91
:10A09000039B1B6805991846FFF737FF039B1B6856
:10A0A000BDF8122011461846FFF7E1FE039B1B681E
:10A0B000019A02991846FFF79FFE039B1B680599BA
:10A0C0001846FFF718FF9DF80330002B05D0039BBF
:10A0D0001B6805991846FFF7A9FE00BF07B05DF899
:10A0E00004FB00BFAC5F030000B585B00390029194
:10A0F00013468DF80730039B002B03D10B49A92091
:10A1000006F05CF8039B1B6802991846FFF7F3FE04
:10A110009DF80730002B05D0039B1B680299184659
:10A12000FFF784FE00BF05B05DF804FBAC5F0300E1
:10A1300000B583B001900091019B002B03D10A4927
:10A14000B32006F03BF8019B1B6800991846FFF707
:10A15000DCFE019B1B6800991846FFF771FE00BFEB
:10A1600003B05DF804FB00BFAC5F030000B583B033
:10A1700001900B46ADF80230019B002B03D10F4933
:10A18000BA2006F01BF8019B1B68BDF8022011469F
:10A190001846FFF75FFE0346002B09D0019B1B68A2
:10A1A000BDF8022011461846FFF761FE012300E0CA
:10A1B0000023184603B05DF804FB00BFAC5F03004A
:10A1C00082B001900091019A009BD31A23F07F4343
:10A1D000184602B07047000000B58BB003900291A2
:10A1E00001920093039B002B03D15749CD2005F02A
:10A1F000E5FF4FF48032029B02FA03F30993029BBE
:10A2000050339BB29B00ADF82230019B23F07F437B
:10A21000019309990398FFF78BFF039B1B6818466E
:10A22000FFF73AFE0790039B1B6802991846FFF759
:10A23000F1FD0690039B1B68079A02991846FFF7E9
:10A24000DBFD039B1B68BDF8222011461846FFF773
:10A250000EFE07990698FFF7B3FF0346012B0AD1BC
:10A260001020FFF7B1FD039B1B68BDF822201146AB
:10A270001846FFF7FCFD039B1B681846FFF70CFE12
:10A28000079007990198FFF79BFF0590039B1B68B8
:10A2900009991846FFF72FFE059B012B15D1039B4B
:10A2A0001868019B01331A460299FFF7A5FD10209B
:10A2B000FFF78AFD039B1B681846FFF7EDFD02467A
:10A2C000079B934235D00D2339E0039B1B68019A0D
:10A2D00002991846FFF790FD039B1B681846FFF78D
:10A2E000DBFD0790019B013B07991846FFF768FFCC
:10A2F0000590009BC3F1FF1303F57F43059A9A4233
:10A3000001D90D231BE0059B002B12D1039B18687C
:10A31000019B01331A460299FFF76EFD039B1B68F0
:10A320001846FFF7B9FD0246079B934201D00D2363
:10A3300005E0012209990398FFF7D6FE002318468D
:10A340000BB05DF804FB00BFAC5F030000B583B049
:10A3500001900B468DF803309DF803301A46022118
:10A360000198FFF7C1FE00BF03B05DF804FB00B524
:10A3700083B001904FF482710198FFF7F7FE034616
:10A38000184603B05DF804FB00B583B0019000915E
:10A390004FF48032009B02FA03F319460198FFF74D
:10A3A000C7FE00BF03B05DF804FB00B585B00190A7
:10A3B0000091009B50339BB29B00ADF80E30BDF86E
:10A3C0000E3019460198FFF7D1FE0346184605B036
:10A3D0005DF804FB00B583B001900091019B1B6800
:10A3E00000991846FFF716FD0346184603B05DF8BE
:10A3F00004FB00B583B00190019B1B681846FFF772
:10A400004BFD0346184603B05DF804FB00B583B06E
:10A410000190019B93F904301846FFF757FC00BFE9
:10A4200003B05DF804FB000008B5044B1B68044A48
:10A4300012681046984700BF08BD00BF24A5002041
:10A4400028A5002086B001900091019B53E8011FD0
:10A450008AB2D88902449889824228BF121A188980
:10A46000824202BFBFF32F8F002307E0C2EA01023E
:10A4700043E801200028E9D14FF001038DF80F30A7
:10A48000059002910492029A009B1A609DF80F3089
:10A49000DBB2184606B0704784B00190019951E8CC
:10A4A000013FC3EA034341E80132002AF7D1039296
:10A4B000029300BF04B0704786B001900091019BE9
:10A4C00053E8021F1FFAA1F2D888824202BFBFF3ED
:10A4D0002F8F00230DE0D88902449889824228BF3B
:10A4E000121AC1EA024243E802200028E8D14FF0E4
:10A4F00001038DF80F30059002910492029A009B9F
:10A500001A609DF80F30DBB2184606B0704784B071
:10A510000190019951E8023FC3EA234341E8023226
:10A52000002AF7D10392029300BF04B0704784B0B1
:10A530000390029111461A460B46ADF806301346B9
:10A54000ADF80430029B002B01D10E231FE0BDF8B3
:10A550000630BDF80420B3FBF2F101FB02F29B1AB6
:10A560009BB2002B01D0092311E0039B029A1A60D1
:10A57000039B00225A60039B00229A60039BBDF854
:10A5800006209A81039BBDF80420DA810023184637
:10A5900004B0704700B585B001900091009B19464A
:10A5A0000198FFF74FFF0346002B07D0019B1B6864
:10A5B000009A128813440393039B00E0002318467B
:10A5C00005B05DF804FB00B583B001900091009BDD
:10A5D0001A88009B5B889A4204D10198FFF75CFFC0
:10A5E000012300E00023184603B05DF804FB00B52A
:10A5F00085B001900091009B19460198FFF75CFF20
:10A600000346002B07D0019B1B68009A5288134415
:10A610000393039B00E00023184605B05DF804FB9C
:10A6200000B583B001900091009B1A88009B5B8865
:10A630009A4204D10198FFF76AFF012300E000234A
:10A64000184603B05DF804FB10B487B00190009188
:10A65000019B009A53E8004F104643E8000191F037
:10A66000000FF7D1059404900391059B184607B09D
:10A670005DF8044B704710B487B001900091019BC6
:10A68000009A53E8004F44EA020043E8000191F0C9
:10A69000000FF6D1059404900391049B184607B06F
:10A6A0005DF8044B704710B487B001900091019B96
:10A6B000009A53E8004F04EA020043E8000191F0D9
:10A6C000000FF6D1059404900391059B184607B03E
:10A6D0005DF8044B704710B487B001900091019B66
:10A6E000009A53E8004F04EA020043E8000191F0A9
:10A6F000000FF6D1059404900391049B184607B00F
:10A700005DF8044B704710B487B001900091019B35
:10A71000009A53E8004F04EB020043E8000191F077
:10A72000000FF6D1059404900391049B184607B0DE
:10A730005DF8044B704710B487B001900091019B05
:10A74000009A53E8004FA4EB020043E8000191F0A7
:10A75000000FF6D1059404900391049B184607B0AE
:10A760005DF8044B704700B583B00190012101985A
:10A77000FFF781FF0346184603B05DF804FB00B500
:10A7800083B0019000210198FFF78DFF0346184622
:10A7900003B05DF804FB000000B583B001900B46E8
:10A7A0008DF80330019B002B03D10849E82005F008
:10A7B00005FD019BDA689DF803300199098A01FBC8
:10A7C00003F31344184603B05DF804FB686003000C
:10A7D00000B583B001900091019B002B03D1084983
:10A7E000F52005F0EBFC009B019AD2689B1A019AB8
:10A7F000128AB3FBF2F3DBB2184603B05DF804FB38
:10A800006860030000B585B00190019B002B01D169
:10A810000E234CE0019B1B68002B03D12649FF202F
:10A8200005F0CCFC019B5B68002B04D122494FF45E
:10A83000807005F0C3FC019B9B68002B04D11E496E
:10A8400040F2011005F0BAFC019BDB68002B04D13B
:10A8500019494FF4817005F0B1FC019B1B8A002B54
:10A8600004D1154940F2031005F0A8FC019B9A6839
:10A87000019B5B68D31A8DF80F30019B1B68019A0E
:10A8800052681A6007E0019B1A681368591C11602E
:10A890009DF80F201A709DF80F305A1E8DF80F206A
:10A8A000002BF0D1019B1B6800221A71002318466F
:10A8B00005B05DF804FB00BF6860030000B585B01B
:10A8C0000190019B002B04D11F494FF4927005F0B9
:10A8D00075FC0023039300238DF80A300DF10A0361
:10A8E0001846FFF78BF9019B1B681A68019B5B6890
:10A8F0009A421FD9019B1B681A68013A1A601B68AB
:10A900001B7819460198FFF747FF0390019B9A684F
:10A91000019B1B681B68D31A8DF80B30019B1B68C9
:10A920001B799DF80B209A4204D9019B1B689DF866
:10A930000B201A719DF80A301846FFF775F9039B32
:10A94000184605B05DF804FB6860030010B584B0DC
:10A9500001900091019B002B04D1154940F2471052
:10A9600005F02CFC009B002B04D111494FF4A4707E
:10A9700005F024FC009B039300238DF80B300DF1B0
:10A980000B031846FFF73AF9019B1B681C68621C11
:10A990001A6003990198FFF71BFF034623709DF887
:10A9A0000B301846FFF740F900BF04B010BD00BFE0
:10A9B0006860030000B583B00190019B002B03D1B8
:10A9C0000C49312005F0FAFB019B9B68002B0CD051
:10A9D000019B5B69019A1069019A1168019A92685A
:10A9E0009847019B00229A6000E000BF03B05DF829
:10A9F00004FB00BFD06003000EB400B584B001902A
:10AA0000019B002B03D11849422005F0D7FB019B85
:10AA10005B69002B03D11449432005F0CFFB019B58
:10AA20001B68002B03D11049442005F0C7FB019B94
:10AA30005B68002B03D10C49452005F0BFFB059B4B
:10AA4000002B0AD00023039306AB039303AB1A46F3
:10AA50000599019800F0B8F900E000BF04B05DF876
:10AA600004EB03B0704700BFD060030000B583B0B3
:10AA700001900B468DF803309DF803300A2B03D16B
:10AA80000D210198FFF7F2FF019B1A68019B9B685B
:10AA9000581C0199886013449DF803201A70019B8B
:10AAA0009A68019B5B689A4202D30198FFF782FF84
:10AAB00000BF03B05DF804FB00B587B003900291BE
:10AAC0000192009300230593009B03F00103002BE8
:10AAD00024D00BE0029B01330293059B01330593C5
:10AAE0009DF8133019460398FFF7C0FF029B1B78AF
:10AAF0008DF813309DF81330002BEBD106E0019B4D
:10AB0000013B019320210398FFF7B0FF019A059BB9
:10AB10009A422ED9019B002BF1D12AE0029B002BF7
:10AB20000BD002980AF073FB059006E0019B013BF5
:10AB3000019320210398FFF799FF019A059B9A4200
:10AB40000FD9019B002BF1D10BE0029B0133029343
:10AB5000059B013305939DF8133019460398FFF7C1
:10AB600085FF029B1B788DF813309DF81330002B66
:10AB7000EBD100BF07B05DF804FB000000B589B061
:10AB80000390029101920093029B07930123069385
:10AB900007E0079A019BB2FBF3F30793069B01338F
:10ABA0000693079A019B9A42F3D2009A069B9A4217
:10ABB00001D9009B06930B9B03F00103002B22D1CC
:10ABC0000A9B002B1FD00B9B03F00203002B06D027
:10ABD000009B002B03D130238DF8173002E0202397
:10ABE0008DF8173008E00A9B013B0A939DF8173057
:10ABF00019460398FFF73AFF0A9B002B03D0069AE9
:10AC00000A9B9A42EFD301230793009B012B03D9A0
:10AC1000009B013B009309E0029A079BB2FBF3F310
:10AC20000493049A019B9A4200D205E0079B019A83
:10AC300002FB03F30793E8E7029A079BB2FBF3F3E7
:10AC40000493049B079A02FB03F3029AD31A02931C
:10AC5000154A049B13441B7819460398FFF706FF17
:10AC6000079A019BB2FBF3F30793079B002BE3D1F9
:10AC70000B9B03F00103002B11D00A9B002B0ED07D
:10AC800006E00A9B013B0A9320210398FFF7EEFEA2
:10AC90000A9B002B03D0069A0A9B9A42F1D300BF6D
:10ACA00009B05DF804FB00BF9861030000B589B0EE
:10ACB0000590049103920293049B002BB8BF5B4262
:10ACC00006930123079307E0039B069A92FBF3F395
:10ACD0000693079B01330793039B069A9A42F3DA84
:10ACE000029A079B9A4201D9029B07930A9B002B69
:10ACF0000AD0049B002B04DB0B9B03F00403002B06
:10AD000002D00A9B013B0A930B9B03F00203002B2A
:10AD100002D0029B002B16D00B9B03F00103002BEB
:10AD200011D10A9B002B0ED006E00A9B013B0A932F
:10AD300020210598FFF79AFE0A9B002B03D0079A63
:10AD40000A9B9A42F1D3049B002B07DA049B5B42D7
:10AD500004932D210598FFF789FE08E00B9B03F073
:10AD60000403002B03D02B210598FFF77FFE0B9BDC
:10AD700003F00203002B19D00B9B03F00103002BFF
:10AD800014D1029B002B11D10A9B002B0ED006E0A0
:10AD90000A9B013B0A9330210598FFF767FE0A9B47
:10ADA000002B03D0079A0A9B9A42F1D304990B9B7C
:10ADB00001930A9B0093029B039A0598FFF7DEFE1E
:10ADC00000BF09B05DF804FB00B58FB00590049199
:10ADD0000392059B002B04D1AD4940F2522005F0AF
:10ADE000EDF9059B5B69002B04D1A9494FF415705F
:10ADF00005F0E4F9059B1B68002B04D1A44940F23F
:10AE0000552005F0DBF9059B5B68002B04D1A049B8
:10AE100040F2562005F0D2F9049B002B00F09381FC
:10AE2000049B1B788DF83730049B013304939DF805
:10AE30003730002B00F07E819DF83730252B40F015
:10AE40006D8100230A9301230C93049B1B788DF8DA
:10AE500037309DF83730302B0DD0302B1BDC2B2BAF
:10AE600011D02D2B17D10A9B43F001030A93049BA9
:10AE70000133049312E00A9B43F002030A93049BFC
:10AE8000013304930AE00A9B43F004030A93049BF2
:10AE90000133049302E000230C9300BF0C9B002BB2
:10AEA000D3D1002309939DF837302A2B0CD1039B73
:10AEB0001B68191D039A11601B68099A13440993B2
:10AEC000049B013304931AE0049B1B788DF8373000
:10AED0009DF837302F2B12D99DF83730392B0ED8EB
:10AEE000049B01330493099A13469B0013445B00AF
:10AEF0001A469DF837301344303B0993D3E70023BB
:10AF00000B93049B1B788DF837309DF837302E2B30
:10AF10001DD1049B01330493049B1B788DF83730BB
:10AF20009DF837302F2B12D99DF83730392B0ED89A
:10AF3000049B013304930B9A13469B0013445B005C
:10AF40001A469DF837301344303B0B93E4E7049BDB
:10AF50001B788DF837309DF837306C2B03D09DF877
:10AF60003730682B07D1049B01330493049B1B7873
:10AF70008DF83730EFE79DF83730252B00F0C4808F
:10AF8000252BC0F2C680782B00F3C380582BC0F26B
:10AF9000C080583B202B00F2BC8001A252F823F065
:10AFA00095B0020013B1020013B1020013B1020008
:10AFB00013B1020013B1020013B1020013B1020079
:10AFC00013B1020013B1020013B1020025B0020058
:10AFD00047B0020013B1020013B1020013B1020026
:10AFE00013B1020047B0020013B1020013B1020016
:10AFF00013B1020013B1020013B1020013B1020039
:10B00000D5B0020013B1020013B10200B9B00200C2
:10B0100013B102006BB0020013B1020013B10200C1
:10B0200095B00200039B1B68191D039A11601B68F1
:10B030000C930C9B8DF81F309DF81F301946059816
:10B04000FFF714FD66E0039B1B68191D039A11604E
:10B050001B680C930A9B0193099B00930B9B0A228C
:10B060000C990598FFF722FE54E0039B1B68191DFD
:10B07000039A11601B680C930C990A9B0193099B1E
:10B0800000930B9B0A220598FFF778FD42E000BF72
:10B0900030610300039B1B68191D039A11601B6834
:10B0A0000C930C990A9B0193099B00930B9B102214
:10B0B0000598FFF763FD2DE0039B1B68191D039A9C
:10B0C00011601B6808930A9B099A08990598FFF775
:10B0D000F3FC1FE0039B1B68191D039A11601B689A
:10B0E0000C9330210598FFF7C1FC78210598FFF7F4
:10B0F000BDFC0C9900230193082300930823102220
:10B100000598FFF73BFD05E025210598FFF7AEFC0C
:10B1100000E000BF049B0133049305E09DF8373045
:10B1200019460598FFF7A2FC049B1B78002B7FF4BF
:10B1300077AE00E000BF059B1B7B002B04D0059879
:10B14000FFF738FC00E000BF0FB05DF804FB00BF64
:10B1500000B583B001900198FFF754FB03461846F1
:10B1600003B05DF804FB00B58BB001900091019B2A
:10B170001B8A043B0793009A079B1344DA1C079B26
:10B18000B2FBF3F38DF81B300198FFF797FB0590A6
:10B19000059B002B01D1002338E0059B00221A718A
:10B1A000059B01225A71079B9AB2059BDA80059B89
:10B1B00009939DF81B30013B0493099B019A1A6087
:10B1C000002308931DE00198FFF778FB0390039B91
:10B1D000002B0ED0059B5B790133DAB2059B5A71C7
:10B1E000099B039A1A60039B019A1A60039B0993B7
:10B1F00004E0059800F00EF8002307E0089B0133F7
:10B200000893089A049B9A42DDD3059B18460BB01D
:10B210005DF804FB00B58BB00190019B0793079B81
:10B220005B798DF81B30019B08939DF81B30013B27
:10B2300005930023099305E0089B1B680893099B6D
:10B2400001330993099A059B9A42F5D3089B1B6821
:10B250000493019B0893002309930BE0089B1B6850
:10B26000039308990498FFF771FB039B0893099BCC
:10B27000013309939DF81B30099A9A42EED300BF1F
:10B2800000BF0BB05DF804FB00B585B00190019BD9
:10B290000393039B043301211846FFF734FA00BFE0
:10B2A00005B05DF804FB00B587B00190019B0593E4
:10B2B000059B043301211846FFF73DFA034603932B
:10B2C00003AB0493049B1B78002B02D10198FFF77A
:10B2D000A1FF00BF07B05DF804FB000000B591B00E
:10B2E0000390029101920093039B002B03D14349E9
:10B2F000B62004F063FF039B0993039B0F93099B04
:10B30000DB881A46099B5B7902FB03F3043B089335
:10B31000009A089B9A4203D33849C42004F04EFF98
:10B32000099BDB880793009B1A1D079BB2FBF3F375
:10B330000E93009B0433079AB3FBF2F2079901FBCB
:10B3400002F29B1A0D93019B1A68009B1344089A02
:10B350009A4203D2089A009BD31A01E0019B1B6812
:10B360000C93019B0C9A1A6005E00F9B1B680F93CE
:10B370000E9B013B0E930E9B002BF6D100230B93EB
:10B38000079A0D9BD31A0A930A9A0C9B934228BFE3
:10B3900013460A932AE0029A0B9B134406930F9AD2
:10B3A0000D9B1344043305939DF84830002B05D0C2
:10B3B0000A9A0599069809F0ACFE04E00A9A0699E3
:10B3C000059809F0A6FE00230D930F9B1B680F93B1
:10B3D0000C9A0A9BD31A0C930B9A0A9B13440B9357
:10B3E000079A0C9B934228BF13460A930C9B002B91
:10B3F000D1D100BF00BF11B05DF804FBA86103000C
:10B4000000B589B00590049103920293039B0793C2
:10B4100007AA00230093029B04990598FFF75EFF9B
:10B42000079B039A9A4203D00349F62004F0C6FE14
:10B4300000BF09B05DF804FBA861030000B589B046
:10B440000590049103920293039B079307AA01239B
:10B450000093029B04990598FFF740FF079B039A0E
:10B460009A4204D004494FF4807004F0A7FE00BF54
:10B4700009B05DF804FB00BFA861030082B0034679
:10B480008DF807309DF90730002B0DDB9DF8073054
:10B4900003F01F0206499DF907305B09012000FAFD
:10B4A00002F2603341F8232000BF02B0704700BFB2
:10B4B00000E100E000B583B00190019B002B03D1B7
:10B4C0000649722004F07AFE019B00221A60BFF345
:10B4D0005F8F00BF00BF03B05DF804FB6462030030
:10B4E00041DF704700BF184600B585B000238DF8D6
:10B4F00007300DF107031846FEF780FBF1EE103A16
:10B500000393039B23F09F030293029BE1EE103A07
:10B5100000BFBFF35F8F00BF2620FFF7AFFF9DF88E
:10B5200007301846FEF780FB039B03F00703002B50
:10B5300003D004497D2004F041FE00BF05B05DF852
:10B5400004FB00BFA862030008B5064B00221A7076
:10B550000548FFF7AFFF0549054800F027FA00232B
:10B56000184608BD34A5002030A500201463030050
:10B5700038A5002000B583B0FFF7B6FF09F0BCF98D
:10B580000346002B0ED0FFF7ABFF0190019B002B71
:10B590000BD0019B022B08D006494FF4B07004F089
:10B5A0000DFE02E020BF40BF20BF00BF03B05DF82A
:10B5B00004FB00BFA862030082B00190019B9B685E
:10B5C000024A12781344184602B07047866303009B
:10B5D00000B583B001900091019B002B03D1084975
:10B5E000832004F0EBFD019B9B68009A9A4202D2F3
:10B5F000009B013300E00023184603B05DF804FB14
:10B600002063030000B585B00190019B1B681B6897
:10B610000393019B1B685B680293029A039B9A4207
:10B6200003D3029A039BD31A07E00198FFF7C4FFE4
:10B630000246039BD21A029B1344184605B05DF8DC
:10B6400004FB000000B585B00190019B002B03D1E5
:10B650000D49982004F0B2FD019B1B681B68039301
:10B66000019B1B685B68029302990198FFF7B0FF8A
:10B670000246039B93420CBF01230023DBB2184612
:10B6800005B05DF804FB00BF2063030010B588B06F
:10B690000190009100230793019B002B03D1564991
:10B6A000A32004F08BFD009B002B03D15249A42062
:10B6B00004F084FD00238DF80F300DF10F031846C0
:10B6C000FEF79CFA0198FFF7BDFF03468DF81B308B
:10B6D0009DF81B3083F00103DBB2002B03D1019BEB
:10B6E0001B7C002B7BD1019B1B685B680593019B36
:10B6F0001B685A68019B1C6811460198FFF768FF98
:10B70000034663609DF81B30002B0AD0019B1B6829
:10B710001A68019B1C6811460198FFF759FF034600
:10B720002360019BDB68013B072B38D801A252F84C
:10B7300023F000BF55B7020065B702009FB70200B3
:10B7400077B702009FB702009FB702009FB70200C1
:10B7500089B70200019B5A68059B1344009A12782E
:10B760001A702DE0019B5A68059B5B001344009AF8
:10B7700012881A8024E0019B5A68059B9B001344A1
:10B78000009A12681A601BE0019B5A68059BDB0057
:10B79000D118009BD3E90023C1E9002310E0019BED
:10B7A0005B681946019BDB68059A02FB03F30B44B7
:10B7B0001846019BDB681A46009909F0AAFC00BFF5
:10B7C0000198FFF71FFF0490019B1B689B68049A78
:10B7D0009A4207D9019B1B68049A9A6002E00423ED
:10B7E000079300E000BF9DF80F301846FEF71CFAE3
:10B7F000079B184608B010BD2063030010B588B041
:10B800000390029113468DF8073000230793039BA2
:10B81000002B03D14549E72004F0D0FC029B002B0C
:10B8200003D14249E82004F0C9FC00238DF8173009
:10B830000DF117031846FEF7E1F9039800F078F8C8
:10B84000034683F00103DBB2002B63D0039B1B682C
:10B850001B6806939DF8073083F00103DBB2002BD1
:10B860000AD0039B1B681A68039B1C681146039847
:10B87000FFF7AEFE03462360039BDB68013B072B0B
:10B8800037D801A252F823F0A9B80200B9B80200D3
:10B89000F3B80200CBB80200F3B80200F3B802001C
:10B8A000F3B80200DDB80200039B5A68069B1344FC
:10B8B0001A78029B1A702FE0039B5A68069B5B0064
:10B8C00013441A88029B1A8026E0039B5A68069B41
:10B8D0009B0013441A68029B1A601DE0039B5A6880
:10B8E000069BDB001344D3E900230299C1E900233E
:10B8F00012E0039B5B681946039BDB68069A02FB18
:10B9000003F30B441946039BDB681A46029809F0BF
:10B9100000FC01E0052307939DF817301846FEF759
:10B9200083F9079B184608B010BD00BF20630300D1
:10B9300000B585B00190019B002B04D10B4940F26A
:10B940002B2004F03BFC019B1B681B680393019BAD
:10B950001B685B680293039A029B9A420CBF012307
:10B960000023DBB2184605B05DF804FB206303003A
:10B9700082B00190019B9B6800229A60019B9B68AA
:10B9800000221A61019B9B6800225A61019B9B68FF
:10B990000022DA60019B9B6800225A60019B9B6831
:10B9A00000221A6000BF02B07047000000B583B0EB
:10B9B00001900091019B002B03D11049502004F00D
:10B9C000FDFB009B002B03D10C49512004F0F6FB3A
:10B9D000019B009A1A60019B1B681A68019B5A60C0
:10B9E000019B5A68019B1B685B689A4202D1019BCC
:10B9F00000225A6000BF03B05DF804FB88630300B7
:10BA000000B583B00190019B002B03D11449632042
:10BA100004F0D4FB019B1B68002B03D11049642068
:10BA200004F0CCFB019B5B68002B14D0019B5B688E
:10BA30001A46019B1B689B6813441A46019B5A6077
:10BA4000019B5A68019B1B685B689A4204D1019B69
:10BA500000225A6000E000BF03B05DF804FB00BFA5
:10BA60008863030000B585B001900091019B002B15
:10BA700003D118493A2004F0A1FB009B002B03D10D
:10BA800014493B2004F09AFB019B5B6803930FE091
:10BA9000019B9B68039A12680099104698470346D9
:10BAA00083F00103DBB2002B07D1039B1B680393D8
:10BAB000039B1B68002BEBD100E000BF039B1A68BF
:10BAC000009B1A60039B009A1A6000BF05B05DF8E6
:10BAD00004FB00BF1864030000B585B00190019B12
:10BAE000002B03D10C49512004F068FB019B5B68DB
:10BAF0001B680393019B5B681B68002B06D0019BAE
:10BB00005B681A68019B5B6812681A60039B1846A1
:10BB100005B05DF804FB00BF1864030000B583B0F6
:10BB20000190019B002B03D105495D2004F046FBE9
:10BB3000019B5B681B68184603B05DF804FB00BFFF
:10BB40001864030000B585B001900091019B002BA3
:10BB500003D11649692004F031FB009B002B03D16F
:10BB600012496A2004F02AFB00238DF80B30019B58
:10BB70005B6803930FE0039B1B68009A9A4207D10E
:10BB8000009B1A68039B1A6001238DF80B3006E0B6
:10BB9000039B1B680393039B1B68002BEBD19DF851
:10BBA0000B30184605B05DF804FB00BF18640300B5
:10BBB00000B585B00190019800F00EF80390039B4A
:10BBC000002B01D0039B00E0024B184605B05DF846
:10BBD00004FB00BF8464030086B00190164B0593FC
:10BBE000164B04931FE0049A059BD31ADB10DA0F5F
:10BBF00013445B10DB00059A13440393039B1B68FB
:10BC00000293029A019B9A4202D9039B04930AE091
:10BC1000029A019B9A4203D2039B0833059302E0E8
:10BC2000039B5B6804E0059A049B9A42DBD30023E4
:10BC3000184606B0704700BF84680300AC69030073
:10BC400000B583B001900091019BDBB21846FDF76F
:10BC500031FF019B184603B05DF804FBBFF34F8F23
:10BC600000BF064BDB6803F4E0620449044B134356
:10BC7000CB60BFF34F8F00BF00BFFDE700ED00E0DA
:10BC80000400FA0582B0124B1B680193114B1B682C
:10BC90000093019B082B17D1009B032B12D801A204
:10BCA00052F823F0B5BC0200B9BC0200BDBC0200D2
:10BCB000C1BC0200012308E0012306E0012304E0E7
:10BCC000012302E0012300E00023184602B0704780
:10BCD000300100103401001082B0124B1B68019338
:10BCE000114B1B680093019B082B17D1009B032B62
:10BCF00012D801A252F823F009BD02000DBD0200C6
:10BD000011BD020015BD0200012308E0012306E079
:10BD1000012304E0012302E0012300E00023184690
:10BD200002B07047300100103401001082B0124B95
:10BD30001B680193114B1B680093019B082B17D1C3
:10BD4000009B032B12D801A252F823F05DBD020024
:10BD500061BD020065BD020069BD0200012308E06B
:10BD6000002306E0002304E0002302E0002300E0BB
:10BD70000023184602B07047300100103401001053
:10BD800082B0124B1B680193114B1B680093019BFF
:10BD9000082B17D1009B032B12D801A252F823F0D5
:10BDA000B1BD0200B5BD0200B9BD0200BDBD0200BB
:10BDB000012308E0002306E0002304E0002302E062
:10BDC000002300E00023184602B070473001001045
:10BDD0003401001082B0124B1B680193114B1B6899
:10BDE0000093019B082B17D1009B032B12D801A2B3
:10BDF00052F823F005BE020009BE02000DBE02008B
:10BE000011BE0200012308E0002306E0002304E045
:10BE1000002302E0002300E00023184602B0704730
:10BE2000300100103401001082B0124B1B680193E6
:10BE3000114B1B680093019B082B17D1009B032B10
:10BE400012D801A252F823F059BE02005DBE0200D2
:10BE500061BE020065BE0200012308E0002306E087
:10BE6000002304E0002302E0002300E00023184642
:10BE700002B07047300100103401001082B0124B44
:10BE80001B680193114B1B680093019B082B17D172
:10BE9000009B032B12D801A252F823F0ADBE020082
:10BEA000B1BE0200B5BE0200B9BE0200012308E027
:10BEB000012306E0012304E0012302E0012300E066
:10BEC0000023184602B07047300100103401001002
:10BED000024B034A1A6000BF704700BF0098002061
:10BEE0000090D00308B5FFF7CDFE0346002B0ED01F
:10BEF0004FF080430022C3F80C214FF08043002212
:10BF0000C3F810214FF080430022C3F83825FFF713
:10BF1000E3FE0346002B76D04FF080537D4AD3F8E2
:10BF20000434C2F820354FF080537A4AD3F80834ED
:10BF3000C2F824354FF08053764AD3F80C34C2F857
:10BF400028354FF08053734AD3F81034C2F82C359B
:10BF50004FF080536F4AD3F81434C2F830354FF0A5
:10BF600080536C4AD3F81834C2F834354FF08053FC
:10BF7000684AD3F81C34C2F840354FF08053654A04
:10BF8000D3F82034C2F844354FF08053614AD3F8D7
:10BF90002434C2F848354FF080535E4AD3F8283431
:10BFA000C2F84C354FF080535A4AD3F82C34C2F8BB
:10BFB00050354FF08053574AD3F83034C2F85435D7
:10BFC0004FF08053534AD3F83434C2F860354FF001
:10BFD0008053504AD3F83834C2F864354FF0805358
:10BFE0004C4AD3F83C34C2F868354FF08053494A84
:10BFF000D3F84034C2F86C354FF08053454AD3F83B
:10C000004434C2F87035FFF791FE0346002B02D08E
:10C01000414B424A1A60FFF7B3FE0346002B03D0A0
:10C020003F4BFB22C3F81825FFF7D4FE0346002B35
:10C030000AD03C4B1B6823F00F023B4B1B6803F0FC
:10C040000F03384913430B60FFF7EEFE0346002B46
:10C0500003D0364B4FF400721A60FFF70FFF034610
:10C06000002B0DD04FF08043D3F8003403F00103D0
:10C07000002B05D04FF080436FF00102C3F800247D
:10C080002B4BD3F888302A4A43F47003C2F8883027
:10C09000BFF34F8F00BFBFF36F8F00BF4FF0102370
:10C0A000D3F80032002B05DB4FF01023D3F8043215
:10C0B000002B2BDA1F4B0122C3F8042500BF1D4BB8
:10C0C000D3F80034002BFAD04FF010231222C3F81B
:10C0D000002200BF174BD3F80034002BFAD04FF0EA
:10C0E00010231222C3F8042200BF124BD3F80034ED
:10C0F000002BFAD00F4B0022C3F8042500BF0D4BD4
:10C10000D3F80034002BFAD0FFF7A8FDFFF7E0FECC
:10C1100000BF08BD00C000408C56004048810300AD
:10C1200000F00040E40E004058020010409602402B
:10C1300000ED00E000E0014000B583B00190019BFC
:10C140001B68184600F01FF90346002B04D10B4969
:10C150004FF4F67004F032F8019B1B681F2B02D8D5
:10C160004FF0A04306E0019B1B6803F01F02019BF8
:10C170001A60034B184603B05DF804FBAC6903007A
:10C180000003005000B585B00190084611461A46DC
:10C1900003468DF803300B468DF8023013468DF8B8
:10C1A000013001AB1846FFF7C7FF03909DF803204D
:10C1B0009DF802305B001A439DF801309B001A4342
:10C1C0009DF818301B0242EA03019DF81C301B0445
:10C1D000019A1943039B02F5E07243F8221000BF55
:10C1E00005B05DF804FB00B585B003900023019312
:10C1F000002300930023012201210398FFF7C2FFCF
:10C2000000BF05B05DF804FB00B585B003900B4698
:10C210008DF80B309DF80B30002201920022009225
:10C22000002200210398FFF7ADFF00BF05B05DF8C5
:10C2300004FB00B585B0019001AB1846FFF77CFF09
:10C240000390019B012202FA03F31946039800F0C0
:10C2500086F800BF05B05DF804FB00B585B001901D
:10C2600001AB1846FFF768FF0390019B012202FA19
:10C2700003F31946039800F07CF800BF05B05DF8A1
:10C2800004FB00B585B0019001AB1846FFF754FFE1
:10C290000390039BD3F804350293029BDA43019B7E
:10C2A000012101FA03F31A40039BC3F80825019BFF
:10C2B00001229A40029B1A40039BC3F80C2500BF41
:10C2C00005B05DF804FB00B583B001900091009BC0
:10C2D000002B03D10198FFF7C0FF02E00198FFF7A0
:10C2E000A8FF00BF03B05DF804FB00B585B0019066
:10C2F00001AB1846FFF720FF0390039800F01FF8EA
:10C300000246019B22FA03F303F00103184605B02D
:10C310005DF804FB00B585B0019001AB1846FFF74E
:10C320000BFF0390039800F012F80246019B22FADB
:10C3300003F303F00103184605B05DF804FB82B077
:10C340000190019BD3F81035184602B0704782B0B7
:10C350000190019BD3F80435184602B0704782B0B3
:10C3600001900091019B009AC3F8082500BF02B01C
:10C37000704782B001900091019B009AC3F80C2590
:10C3800000BF02B0704784B00190019B5B0902932B
:10C3900000230393029B002B03D0029B012B04D0AC
:10C3A00007E04FF0FF33039303E04FF6FF7303936F
:10C3B00000BF019B03F01F030193039A019B22FA24
:10C3C00003F303F00103002B14BF01230023DBB2AE
:10C3D000184604B07047000000B585B00190019B7D
:10C3E000032B03D911493A2003F0E8FE104A019BC0
:10C3F00013441B781846FFF78DFF0346002B14BF2C
:10C40000012300238DF80F309DF80F30002B14BF4F
:10C4100001230023DBB283F00103DBB203F001034D
:10C42000DBB2184605B05DF804FB00BFDC69030011
:10C43000386A030000B583B00190019B032B03D938
:10C440000749412003F0BAFE064A019B13441B78BA
:10C4500000211846FFF737FF00BF03B05DF804FB6B
:10C46000DC690300386A030000B583B00190019BCA
:10C47000032B03D90749472003F0A0FE064A019B7E
:10C4800013441B7801211846FFF71DFF00BF03B0BE
:10C490005DF804FBDC690300386A030000B583B073
:10C4A0000023019305E00198FFF7DEFF019B0133B4
:10C4B0000193019B032BF6D900BF00BF03B05DF8C9
:10C4C00004FB00B583B00023019305E00198FFF75A
:10C4D000B1FF019B01330193019B032BF6D900BFF0
:10C4E00000BF03B05DF804FB00B583B00190019B71
:10C4F000032B03D907495F2003F060FE064A019B26
:10C5000013441B781846FFF7BCFE00BF03B05DF86C
:10C5100004FB00BFDC690300386A030000B583B088
:10C520000023019309E0094A019B13441B78184634
:10C53000FFF759FE019B01330193019B032BF2D9B5
:10C54000FFF7ACFF00BF03B05DF804FB386A0300DF
:10C5500000B585B00190019B032B03D91149AC2094
:10C5600003F02CFE104A019B13441B781846FFF77A
:10C57000BCFE0346002B14BF012300238DF80F30AF
:10C580009DF80F30002B14BF01230023DBB283F092
:10C590000103DBB203F00103DBB2184605B05DF81E
:10C5A00004FB00BFDC6903003C6A030000B583B0F4
:10C5B000002301930AE0094A019B13441B780321DD
:10C5C0001846FFF721FE019B01330193019B032BCA
:10C5D000F1D900BF00BF03B05DF804FB3C6A030063
:10C5E00084B001904FF0FF330293002303930DE0DA
:10C5F0000A4A039B13441B781A46019B934202D1BB
:10C60000039B029305E0039B01330393039B032BDE
:10C61000EED9029B184604B0704700BF3C6A030085
:10C6200000B583B00190019B032B03D90549CB20B2
:10C6300003F0C4FD044A019B13441B78184603B061
:10C640005DF804FBDC6903003C6A030000B583B0BD
:10C650000190019B03F00103002B01D0FFF75EFF67
:10C66000019B03F00203002B01D0FFF79FFF00BFE7
:10C6700003B05DF804FB000082B003468DF807307C
:10C680009DF90730002B13DB9DF8073003F01F02E4
:10C6900009499DF907305B09012000FA02F22033B5
:10C6A00041F82320BFF34F8F00BFBFF36F8F00BF50
:10C6B00000BF02B0704700BF00E100E0044BD3F8B8
:10C6C0000034002B14BF01230023DBB2184670474F
:10C6D0000000014008B508F00FF9034683F001039C
:10C6E000DBB2002B03D109497B2003F067FDFFF784
:10C6F000E5FF034683F00103DBB2002B04D000F01A
:10C700004FFB034B00229A7000BF08BD486A03002C
:10C7100040A5002000B583B000230193184B1B787F
:10C72000002B02D0852301931CE0154B00229A6058
:10C73000134B00225A60124B00221A61104B002248
:10C74000DA60104800F0F2FA019008F0D5F80346DC
:10C7500083F00103DBB2002B01D000F00DFB084B8E
:10C7600001221A70FFF7AAFF0346002B02D0044BE8
:10C7700001229A70019B184603B05DF804FB00BFCC
:10C7800040A500205DC8020084B00190019B1B6899
:10C790000393039B002B03D0039B1A68019B1A6031
:10C7A000039B184604B0704700B583B0164B1B7846
:10C7B000002B04D1154940F2171003F0FFFC124B77
:10C7C000DB68002B04D111494FF48C7003F0F6FCA8
:10C7D00000238DF807300DF107031846FDF70EFA18
:10C7E000094BDB68013B084AD360074BDB68002B31
:10C7F00001D1FFF76FFF9DF807301846FDF714FAD7
:10C8000000BF03B05DF804FB40A50020486A0300A8
:10C8100000B585B003468DF807309DF80730002B32
:10C8200002D10C4B039301E00B4B03930398FFF7EA
:10C83000ABFF0290029B002B06D0029B5B689DF829
:10C84000072010469847F1E700BF00BF05B05DF82C
:10C8500004FB00BF48A5002050A5002000B583B010
:10C8600003468DF807309DF80730002B05D10A4BA1
:10C8700001225A700020FFF7CBFF9DF80730012BF3
:10C8800005D1054B01229A700120FFF7C1FF00BFBF
:10C8900003B05DF804FB00BF40A5002000B583B0E5
:10C8A00001900091019B002B05D1054B01225A708C
:10C8B0000020FFF7ADFF00BF03B05DF804FB00BF31
:10C8C00040A5002000B585B0034600918DF80730E3
:10C8D0009DF80730032B29D0032B35DC002B02D029
:10C8E000012B04D030E00020FFF7C6FE2DE000232E
:10C8F0008DF80F300DF10F031846FDF77FF9154B3A
:10C900001B7883F00103DBB2002B01D0FFF702FF9D
:10C91000104BDB6801330F4AD3600E4B01229A7033
:10C920009DF80F301846FDF77FF90EE0094B1B7894
:10C93000002B04D1084940F2522003F03FFC00F0E4
:10C940001BFAFFF731FF00E000BF00BF05B05DF844
:10C9500004FB00BF40A50020486A030000B589B071
:10C9600001900091009B0793019B1B788DF80C3080
:10C97000019B5B680493019B9B68DBB28DF81430CC
:10C98000019BDB680693074A079B52F82330064950
:10C99000079A51F8221003AA1046984700BF09B021
:10C9A0005DF804FB54A500205CA5002000B589B00B
:10C9B00001900091009B0793019B1B788DF80C3030
:10C9C000019B5B680493019B9B68DBB28DF814307C
:10C9D000019BDB680693074A079B52F82330064900
:10C9E000079A51F8221003AA1046984700BF09B0D1
:10C9F0005DF804FB54A500205CA5002030B58FB085
:10CA0000039002910192039B1B780C932C490C9B81
:10CA1000019A41F82320029B1A692A490C9B41F88C
:10CA200023200C9B012B07D1029B5B7F002B03D1A2
:10CA30002549762003F0C2FB029B5B7F1946234AFF
:10CA40000C9B13440A461A70029B04AC1D460FCD82
:10CA50000FC495E80F0084E80F000C9B0893002397
:10CA60000D93039B1B781A46184B9B5C002B0DD033
:10CA7000039B181D019B002B01D0154A00E00022EA
:10CA800004AB194602F03EFA0D9014E0039B1B78AC
:10CA90001A460E4B9B5C002B0DD1039B03F10C003F
:10CAA000019B002B01D00B4A00E0002204AB194689
:10CAB00001F06EFB0D900D9B18460FB030BD00BF0E
:10CAC00054A500205CA50020B06A030064A50020E6
:10CAD0005DC90200ADC9020082B003468DF807307F
